:100000000C94460018950000189500001895000003
:10001000189500001895000018950000189500002C
:10002000189500001895000018950000189500001C
:10003000189500001895000018950000189500000C
:1000400018950000189500001895000018950000FC
:1000500018950000189500001895000018950000EC
:1000600018950000189500001895000018950000DC
:1000700018950000189500001895000018950000CC
:100080001895000018950000189500008FEF8DBF9F
:10009000C8EDE0EC4E2E80E18EBFD0E1F0E15F2EA6
:1000A000A89584B7082E877F84BF88E1992781BDF2
:1000B00091BDEEEFFFE0A0E0B1E088278D9331978E
:1000C000E9F76624D69AD39ADE9ADB9A84EF91E018
:1000D0000E947D00DE98DE9884EF91E00E947D0012
:1000E0000C946400F894FFCF3197F1F70895689469
:1000F00062F80895E89462F80895EF93FF93EE276D
:10010000E82BE92B31F0E0EDF7E03197F1F70197BB
:10011000D1F7FF91EF9108950F9301E00BBF0F917D
:10012000889408950F930027F9CF0F9302E0F6CF3C
:060130000F9303E0F3CF82
:00000001FF
