:100000000C94460018950000189500001895000003
:10001000189500001895000018950000189500002C
:10002000189500001895000018950000189500001C
:10003000189500001895000018950000189500000C
:1000400018950000189500001895000018950000FC
:1000500018950000189500001895000018950000EC
:1000600018950000189500001895000018950000DC
:1000700018950000189500001895000018950000CC
:100080001895000018950000189500008FEF8DBF9F
:10009000C8EDE0EC4E2E80E18EBFD0E1F0E15F2EA6
:1000A000A89584B7082E877F84BF88E1992781BDF2
:1000B00091BDEEEFFFE0A0E0B1E088278D9331978E
:1000C000E9F766248FEF8ABB7FEF7BBB8FEF87BB9F
:1000D0007FEF78BB8FEF84BB7FEF75BB8FEF81BB6A
:1000E0007FEF72BB8FEF82B97FEF73B90E947E0002
:1000F0000E94D1000C947600F894FFCF80E08093AA
:10010000010100910101073018F011F00C94D000AA
:10011000A1E0B1E08C91ABE3B0E00E9447010E9406
:100120003D018C9189238C93A1E0B1E08C91A8E3EF
:10013000B0E00E9447010E943D018C9189238C937D
:10014000A1E0B1E08C91A5E3B0E00E9447010E94DC
:100150003D018C9189238C93A1E0B1E08C91A2E3C5
:10016000B0E00E9447010E943D018C9189238C934D
:10017000A1E0B1E08C91A3E2B0E00E9447010E94AF
:100180003D018C9189238C9384E690E00E942E019E
:10019000A1E0B1E08C918F5F8C9310F40C948100FE
:1001A000089587E0809301014091010100E0041768
:1001B00018F011F00C942401A1E0B1E08C91ABE3B4
:1001C000B0E00E9447010E943D019C91982B9C93B6
:1001D000A1E0B1E08C91A8E3B0E00E9447010E9449
:1001E0003D019C91982B9C93A1E0B1E08C91A5E3FB
:1001F000B0E00E9447010E943D019C91982B9C9386
:10020000A1E0B1E08C91A2E3B0E00E9447010E941E
:100210003D019C91982B9C93A1E0B1E08C91A3E2CD
:10022000B0E00E9447010E943D019C91982B9C9355
:1002300084E690E00E942E0180910101815080931C
:10024000010110F00C94D40008953197F1F708954E
:10025000689462F80895E89462F80895EF93FF9324
:10026000EE27E82BE92B31F0E0EDF7E03197F1F7DD
:100270000197D1F7FF91EF91089591E0882321F044
:100280008894991F8A95E9F7892F90950895883069
:1002900018F011968850FBCF08950F9301E00BBF23
:1002A0000F91889408950F930027F9CF0F9302E0E0
:0802B000F6CF0F9303E0F3CF3A
:00000001FF
