:100000000C94460018950000189500001895000003
:10001000189500001895000018950000189500002C
:10002000189500001895000018950000189500001C
:10003000189500001895000018950000189500000C
:1000400018950000189500001895000018950000FC
:1000500018950000189500001895000018950000EC
:1000600018950000189500001895000018950000DC
:1000700018950000189500001895000018950000CC
:100080001895000018950000189500008FEF8DBF9F
:10009000C8EDE0EC4E2E80E18EBFD0E1F0E15F2EA6
:1000A000A89584B7082E877F84BF88E1992781BDF2
:1000B00091BDEEEFFFE0A0E0B1E088278D9331978E
:1000C000E9F783E389B980E08093900088E18AB9F9
:1000D0000E946B0166240E944E010E945F01ECEFBA
:1000E000F4E00E9475020E944101E1E0F0E00E940C
:1000F00062010E944C01EEE0F5E00E9475020E9450
:100100004101E1E0F0E00E9462010E940D010E94C5
:1001100027018FE718E00E945C01E0E2F5E00E9411
:1001200075020E944101E1E0F0E00E9462018FEB64
:1001300011E00E945C01E2E2F5E00E9475020E947B
:100140004101E1E0F0E00E94620184E10E94BE0111
:10015000E1E0F0E00E94620180E10E94BE018CE0DB
:100160000E94BE01E1E0F0E00E9462018FE00E9487
:10017000BE018BE00E94BE01E1E0F0E00E9462015E
:100180008FE00E94BE010E944801E1E0F0E00E9481
:1001900062010E944E01E6EBF1E00E94750280E4EC
:1001A0000E94BE0158E0D895802D0E94B30131967F
:1001B0005A95C9F704C020200A15110A0420EEED53
:1001C000F1E00E94750288E40E94BE0158E0D895D3
:1001D000802D0E94B30131965A95C9F704C0040AD4
:1001E000110A0A110A048FE719E00E945C0180E0FD
:1001F0000E94B301E1E0F0E00E9462018FEB19E0A0
:100200000E945C0181E00E94B301E1E0F0E00E9405
:1002100062010C946B00F894FFCF81E080930101A0
:1002200000910101083018F011F00C9426018CE1C6
:100230000E94BE0184EF91E00E945602A1E0B1E06D
:100240008C918F5F8C9310F40C941001089581E0D1
:100250008093010100910101083018F011F00C9415
:10026000400188E10E94BE0184EF91E00E945602A5
:10027000A1E0B1E08C918F5F8C9310F40C942A0173
:1002800008950E946502802D11F06DD0FACF089577
:1002900082E074D01DD013C080EC70C081E06ED0BD
:1002A00080E86CC08FE7213039F08FEB223021F0ED
:1002B0008FE8233009F08FEC810F0C94BE0180E8A9
:1002C0005DD0089588EE93E0F1D03197D9F7089585
:1002D00083E09927EBC0709165007D7F7093650086
:1002E000709165007B7F70936500709165007E7FE3
:1002F00070936500709164007260709364007091F7
:100300006400746070936400709164007160709315
:100310006400B4D0A49AA59AA69AA79A88E290E01D
:100320000E945602AC9AAD9A8DD085E090E00E9472
:10033000560288D0EF93FF93ECEEF0E00E944D025E
:10034000FF91EF917FD0EF93FF93ECEEF0E00E94EE
:100350004D02FF91EF91AC9875D088E20FD08EE0FE
:100360000DD086E00BC00CD0709165007160709369
:10037000650089D067D0829586D064C001D0F9CF5E
:10038000709165007D7F70936500709165007B7F43
:1003900070936500709165007E7F70936500709129
:1003A0006400726070936400709164007460709374
:1003B0006400709164007160709364005FD0A498D1
:1003C000A598A698A79870916500746070936500D1
:1003D000709165007260709365000000000000007D
:1003E000000000000000000000000000000000000D
:1003F00000000000000000000000000003B2709147
:1004000065007D7F70936500000000000000000023
:1004100000000000000000000000000000000000DC
:10042000000000000000000000000CD007FCD0CF4E
:10043000709165007B7F70936500A49AA59AA69A37
:10044000A79A08957091650072607093650000002E
:10045000000000000000000000000000000000009C
:10046000000000000000000000000000000000008C
:10047000709165007D7F709365000895AC98AD988C
:10048000AE98AF980895FADF84FDAC9A85FDAD9AD9
:1004900086FDAE9A87FDAF9A08953197F1F70895DA
:1004A000689462F80895E89462F80895EF93FF93D2
:1004B000EE27E82BE92B31F0E0EDF7E03197F1F78B
:1004C0000197D1F7FF91EF910895D895319628F4CF
:1004D0008F938BB783958BBF8F91002008950F93D7
:1004E00001E00BBF0F91889408950F930027F9CF77
:1004F0000F9302E0F6CF0F9303E0F3CF7E7E4865C3
:100500006C6C6F20576F726C64217E7E0000284CEB
:10051000434420342D626974204D6F6465290000C6
:040520003A003E005F
:00000001FF
