:100000000C94460018950000189500001895000003
:10001000189500001895000018950000189500002C
:10002000189500001895000018950000189500001C
:10003000189500001895000018950000189500000C
:1000400018950000189500001895000018950000FC
:1000500018950000189500001895000018950000EC
:1000600018950000189500001895000018950000DC
:1000700018950000189500001895000018950000CC
:100080001895000018950000189500008FEF8DBF9F
:10009000C8EDE0EC4E2E80E18EBFD0E1F0E15F2EA6
:1000A000A89584B7082E877F84BF88E1992781BDF2
:1000B00091BDEEEFFFE0A0E0B1E088278D9331978E
:1000C000E9F783E389B980E08093900088E18AB9F9
:1000D0000E943502662486E886B980EC87B9379A93
:1000E00080E08ABB8FEF87BB7FEF7BBB8E9A9698B1
:1000F0008CE00E9488020E948D0088EC90E00E94B3
:1001000020030E94A4000E94B7010E9444010E94A3
:1001100061010C947D00F894FFCF0E9424028FE7C8
:1001200011E00E943202E6EFF7E00E9486030E948F
:100130001B028FEB11E00E943202E8E0F8E00E941F
:1001400086030E941B02089507B1007E016007B973
:100150000E942F03A5E0B1E08D939C93AFE0B1E046
:10016000E5E0F1E00E949D03EFE0F1E0A8EAB0E1F4
:100170000E94F603E8EAF0E1AFE0B1E014E02227E4
:1001800000E033270E94420307B1007E026007B9F6
:100190000E942F03A9E0B1E08D939C93A4E1B1E00C
:1001A000E9E0F1E00E949D03E4E1F1E0A8EAB0E1BA
:1001B0000E94F603E8EAF0E1A4E1B1E014E02227AE
:1001C00000E033270E94420307B1007E036007B9B5
:1001D0000E942F03A7E0B1E08D939C93A9E1B1E0C9
:1001E000E7E0F1E00E949D03E9E1F1E0A8EAB0E177
:1001F0000E94F603E8EAF0E1A9E1B1E014E0222769
:1002000000E033270E94420307B1007E056007B972
:100210000E942F03ABE0B1E08D939C93AEE1B1E07F
:10022000EBE0F1E00E949D03EEE1F1E0A8EAB0E12D
:100230000E94F603E8EAF0E1AEE1B1E014E0222723
:1002400000E033270E94420307B1007E066007B931
:100250000E942F03ADE0B1E08D939C93A3E2B1E047
:10026000EDE0F1E00E949D03E3E2F1E0A8EAB0E1F5
:100270000E94F603E8EAF0E1A3E2B1E014E02227ED
:1002800000E033270E944203AFE0B1E00E940C027D
:10029000A9E1B1E00E940C02A4E1B1E00E940C02CD
:1002A000AEE1B1E00E940C02A3E2B1E00E940C02B8
:1002B00031E0A3E0B1E00E9412028AE00E9417023E
:1002C000089531E0A4E0B1E00E940102A4E0B1E0B1
:1002D0008C9188BBA4E0B1E08C9180FBA8E2B1E0F6
:1002E0008C9187F98C93A8E2B1E08C9187FB16F48E
:1002F0000C949901969AA8E2B1E08C9186FB16F4D1
:100300000C949701709128017064709328010E94E9
:100310002402EAE1F8E00E9486030E941B020E9488
:100320002202E6E2F8E00E9486030E941B020C947F
:10033000B6019698A8E2B1E08C9186FB16F00C9479
:10034000B601709128017F7B709328010E942402DE
:10035000E0E3F8E00E9486030E941B020E94220252
:10036000E8E0F8E00E9486030E941B020895A3E0E3
:10037000B1E089B38C93089581E090E0A1E0B1E011
:100380008D939C93A1E0B1E00D911C91083050E059
:1003900015071CF011F00C94DA018CE10E94880220
:1003A00084EF91E00E942003A1E0B1E00E94FA01F5
:1003B0000C94C201089581E090E0A1E0B1E08D933A
:1003C0009C93A1E0B1E00D911C91083050E015071D
:1003D0001CF011F00C94F90188E10E94880284EF6E
:1003E00091E00E942003A1E0B1E00E94FA010C9488
:1003F000E1010895ED91FC91EF5FFF4FFC93EE93C7
:10040000089504D08D933A95E1F708955F9BFECF50
:100410008CB10895A8EAB0E18D91882311F007D03E
:10042000FBCF08958D9103D03A95E1F708955D9B38
:10043000FECF8CB908950E943803802D11F05DD055
:10044000FACF089580EC64C081E062D080E860C09B
:100450008FE7213039F08FEB223021F08FE8233005
:1004600009F08FEC810F0C948802709165007D7FFC
:1004700070936500709165007B7F7093650070914B
:1004800065007E7F70936500709164007260709368
:1004900064007091640074607093640070916400F3
:1004A000716070936400B4D0A49AA59AA69AA79A92
:1004B00088E290E00E942003AC9AAD9A8DD085E04E
:1004C00090E00E94200388D0EF93FF93ECEEF0E0E1
:1004D0000E941703FF91EF917FD0EF93FF93ECEE13
:1004E000F0E00E941703FF91EF91AC9875D088E27D
:1004F0000FD08EE00DD086E00BC00CD0709165005F
:1005000071607093650089D067D0829586D064C091
:1005100001D0F9CF709165007D7F70936500709177
:1005200065007B7F70936500709165007E7F70939E
:100530006500709164007260709364007091640053
:1005400074607093640070916400716070936400D3
:100550005FD0A498A598A698A7987091650074603C
:100560007093650070916500726070936500000083
:10057000000000000000000000000000000000007B
:10058000000000000000000000000000000000006B
:1005900003B2709165007D7F7093650000000000DC
:1005A000000000000000000000000000000000004B
:1005B00000000000000000000000000000000CD05F
:1005C00007FCD0CF709165007B7F70936500A49A83
:1005D000A59AA69AA79A0895709165007260709383
:1005E00065000000000000000000000000000000A6
:1005F00000000000000000000000000000000000FB
:1006000000000000709165007D7F70936500089583
:10061000AC98AD98AE98AF980895FADF84FDAC9A87
:1006200085FDAD9A86FDAE9A87FDAF9A0895319704
:10063000F1F70895689462F80895E89462F80895CF
:10064000EF93FF93EE27E82BE92B31F0E0EDF7E095
:100650003197F1F70197D1F7FF91EF910895369A0D
:100660003699FECF369A3699FECF84B195B108956A
:10067000D895319628F48F938BB783958BBF8F9144
:10068000002008952E2E3F2E992781918D3209F05A
:1006900093958823D1F79A95E22DF32D112361F0DC
:1006A000091718F011F0101B01C0191B28F021F0D8
:1006B00080E28D931A95E9F780818D3219F48D933C
:1006C000319604C0222311F08BE28D93091738F084
:1006D00031F0091B21F080E38D930A95E9F78191B0
:1006E0008D938823E1F7332351F0EA2FFB2F3196C6
:1006F00033958E9182933A95E1F78EE28C9308952B
:100700000F9301E00BBF0F91889408950F9300277A
:10071000F9CF0F9302E0F6CF0F9303E0F3CF000F72
:10072000111F221F331F08950095109520953095B5
:100730000F5F1F4F2F4F3F4F0895019110810EC043
:1007400001911191219130810BC00191108117FF0E
:1007500005C03FEF2FEF04C0008111272227332768
:1007600037FF03C0E1DF8DE28D93CF93DF93CF920C
:10077000DF92EF92AA24BB24CC24DD24EE2440E2B5
:10078000CAE0DD2755E093E38881890F87FD9F70DC
:1007900083FD907F891B89935A95A9F7C0DFAA1C16
:1007A000BB1CCC1CDD1CEE1C4A9551F7E894EFE015
:1007B000FF2782910ED0EB30E0F71EF068948A2D6F
:1007C0000CD088278D93EF90DF90CF90DF91CF9161
:1007D0000895982F829501D0892F8F70805D26F023
:1007E000803309F4089568948D93089581918D93D1
:1007F0008823E1F708954441512B5343414441205C
:1008000073797374656D0000416264656C6B61643B
:1008100065722657414C4141000020202020204194
:100820006C61726D00002020202020204C4452007A
:100830004441512C53434144412073797374656D95
:020840000000B6
:00000001FF
