:100000000C94460018950000189500001895000003
:10001000189500001895000018950000189500002C
:100020000C94D30018950000189500001895000056
:10003000189500001895000018950000189500000C
:1000400018950000189500001895000018950000FC
:1000500018950000189500001895000018950000EC
:1000600018950000189500001895000018950000DC
:1000700018950000189500001895000018950000CC
:100080001895000018950000189500008FEF8DBF9F
:10009000C8EDE0EC4E2E80E18EBFD0E1F0E15F2EA6
:1000A000A89584B7082E877F84BF88E1992781BDF2
:1000B00091BDEEEFFFE0A0E0B1E088278D9331978E
:1000C000E9F70E941C02662470E07093710070E2F0
:1000D000709370000E942F038AB7806C8ABF1798B4
:1000E0001F9A8E9A969814981C9A79B7706879BF5F
:1000F00078940E940B028CE00E946F020E94B40070
:10010000A9E1B1E08C9187FB16F00C94B0007091DE
:1001100019017F77709319010E9415010E94F50162
:100120008FE711E00E941902E0E4F8E00E94F20378
:100130000E9404020E947903A0E1B1E00E94FE0146
:100140008FEB11E00E941902E8E4F8E00E94F2034C
:100150000E9404020E947903A7E0B1E00E94FE0120
:100160000C948000F894FFCFA0E1B1E0E0E5F8E066
:100170000E94F2030E94DC030E948C03A7E0B1E01E
:10018000EAE5F8E00E94F2030E94DC030E94840387
:100190000E9491010E94AA010E944C010E946601E6
:1001A0000E94800108950F921F922F923F924F92CA
:1001B0005F927F92AF92BF920F931F932F933F93C3
:1001C0004F935F936F937F938F939F93AF93BF935F
:1001D000CF93DF93EF93FF938FB78F938BB78F936B
:1001E00088278BBF709119017068709319018F91E6
:1001F0008BBF8F918FBFFF91EF91DF91CF91BF9117
:10020000AF919F918F917F916F915F914F913F91AE
:100210002F911F910F91BF90AF907F905F904F9063
:100220003F902F901F900F9018950E94460310ED5D
:100230000E94500310E00E9450030E94460311EDFB
:100240000E9450030E946F03A1E0B1E01C930E9442
:100250006F03A2E0B1E01C930E946F03A3E0B1E042
:100260001C930E946F03AAE1B1E01C930E946F03EC
:10027000A4E0B1E01C930E946F03A5E0B1E01C93E1
:100280000E946D03A6E0B1E01C930E9448030E9407
:10029000C3010E94DC0108950E94460310ED0E94F4
:1002A000500314E00E945003A4E0B1E01C910E94AE
:1002B0005003A5E0B1E01C910E945003A6E0B1E01C
:1002C0001C910E9450030E94480308950E94460317
:1002D00010ED0E94500310E00E945003A1E0B1E035
:1002E0001C910E945003A2E0B1E01C910E945003B7
:1002F000A3E0B1E01C910E9450030E9448030895BE
:100300000E94460310ED0E9450031EE00E9450031D
:1003100010E00E94500310E00E9450030E94480326
:100320000895A4E0B1E08C910E940903A4E0B1E03B
:100330008C93A5E0B1E08C910E940903A5E0B1E0A7
:100340008C93A6E0B1E08C910E940903A6E0B1E095
:100350008C930895A1E0B1E08C910E940903A1E083
:10036000B1E08C93A2E0B1E08C910E940903A2E07D
:10037000B1E08C93A3E0B1E08C910E940903A3E06B
:10038000B1E08C930895A4E0B1E09C910E94100329
:10039000A4E0B1E08C93A5E0B1E09C910E94100331
:1003A000A5E0B1E08C93A6E0B1E09C910E9410031F
:1003B000A6E0B1E08C930895A1E0B1E09C910E9489
:1003C0001003A1E0B1E08C93A2E0B1E09C910E9407
:1003D0001003A2E0B1E08C93A3E0B1E09C910E94F5
:1003E0001003A3E0B1E08C930895969A89E190E020
:1003F0000E94200396980895A8EAB0E18D91882381
:1004000011F062D0FBCF08950E94E203802D11F01D
:100410005BD0FACF089581E062D080E860C08FE7BA
:10042000213039F08FEB223021F08FE8233009F0B2
:100430008FEC810F0C946F02709165007D7F70933B
:100440006500709165007B7F709365007091650019
:100450007E7F709365007091640072607093640099
:1004600070916400746070936400709164007160B6
:1004700070936400B4D0A49AA59AA69AA79A88E229
:1004800090E00E942003AC9AAD9A8DD085E090E078
:100490000E94200388D0EF93FF93ECEEF0E00E94DF
:1004A0001703FF91EF917FD0EF93FF93ECEEF0E015
:1004B0000E941703FF91EF91AC9875D088E20FD09E
:1004C0008EE00DD086E00BC00CD07091650071609D
:1004D0007093650089D067D0829586D064C001D0C2
:1004E000F9CF709165007D7F709365007091650014
:1004F0007B7F70936500709165007E7F70936500CF
:100500007091640072607093640070916400746014
:1005100070936400709164007160709364005FD0A8
:10052000A498A598A698A798709165007460709398
:1005300065007091650072607093650000000000B6
:1005400000000000000000000000000000000000AB
:10055000000000000000000000000000000003B2E6
:10056000709165007D7F70936500000000000000C1
:10057000000000000000000000000000000000007B
:100580000000000000000000000000000CD007FC8C
:10059000D0CF709165007B7F70936500A49AA59A77
:1005A000A69AA79A0895709165007260709365008D
:1005B000000000000000000000000000000000003B
:1005C000000000000000000000000000000000002B
:1005D0000000709165007D7F709365000895AC9870
:1005E000AD98AE98AF980895FADF84FDAC9A85FD7A
:1005F000AD9A86FDAE9A87FDAF9A0895982F8295A1
:100600008F70805D8D939F70905D9D9388278C93F4
:1006100008954AE0082F0E9410040295802B089547
:10062000892F8F70905110F0865FFCCF089531971D
:10063000F1F70895689462F80895E89462F80895CF
:10064000EF93FF93EE27E82BE92B31F0E0EDF7E095
:100650003197F1F70197D1F7FF91EF910895919AB2
:10066000909A8998889808956894409374008F931D
:100670009F9388279927019629F04091740047FF9E
:10068000FACFE8949F918F9162F8089544EAECCFF5
:1006900044E9409374004091740047FDFCCF0895F5
:1006A0001093730044E8E0DF8F939F938827992786
:1006B000019671F040917100487F483FC9F3E8947A
:1006C000483139F0483229F0403419F0403509F00A
:1006D00068949F918F9162F8089544E801C044ECBA
:1006E000C3DF1091730040917100487F483FD9F3F8
:1006F00008950E941501A7E0B1E0E4E0F1E00E9456
:10070000CC0333970C94A803E7E0F1E0A4E0B1E058
:100710000E94BA030E944C01E0E1F1E0A1E0B1E0E7
:100720000E9496030E946601ADE0BB2786819781F7
:100730000E9406040D93838194810E9406040D9308
:10074000808191810E9406040D930895EDE0FF27BA
:1007500082810E94FB038AE38D9381810E94FB03C7
:100760008AE38D9380810E94FB0388278C930895F0
:10077000ADE0BB27808191810E9406040D938381A7
:1007800094810E9406040D93868197810E9406043D
:100790000D930895EDE0FF2780810E94FB038FE217
:1007A0008D9381810E94FB038FE28D9382810E9451
:1007B000FB0388278D9308950E94E2030D92002089
:1007C000D9F70895D895319628F48F938BB78395F0
:1007D0008BBF8F91002008950F9301E00BBF0F9105
:1007E000889408950F930027F9CF0F9302E0F6CF76
:1007F0000F9303E0F3CF00278A3018F08A50039557
:10080000FBCF005D0D93805D8D93089580539053D1
:100810000027813018F0065F8A95FBCF090F0895F5
:10082000FF93881BF9E0001FFA9511F4FF910895DA
:10083000881F841B18F4840F8894F5CF0894F3CF95
:1008400054696D653A200000446174653A200000E7
:1008500031363A33303A3330000030312F30382FD0
:040860003131000032
:00000001FF
