:100000000C94460018950000189500001895000003
:10001000189500001895000018950000189500002C
:10002000189500001895000018950000189500001C
:10003000189500001895000018950000189500000C
:1000400018950000189500001895000018950000FC
:1000500018950000189500001895000018950000EC
:1000600018950000189500001895000018950000DC
:1000700018950000189500001895000018950000CC
:100080001895000018950000189500008FEF8DBF9F
:10009000C8EDE0EC4E2E80E18EBFD0E1F0E15F2EA6
:1000A000A89584B7082E877F84BF88E1992781BDF2
:1000B00091BDEEEFFFE0A0E0B1E088278D9331978E
:1000C000E9F783E389B980E08093900088E18AB9F9
:1000D0006624BC9AC498BD9AC598BE9AC698BF9A21
:1000E000C798139A1B98149A1C9816981E9A1598DC
:1000F0001D9A17981F9A8A98929AE8E0F4E00E9455
:10010000B9010E9483010E948A0170910101706807
:100110007093010180E08093060180E090E0A2E00E
:10012000B1E08D939C93EEE0F4E00E94B9010E944F
:10013000830133E00E946401A8EAB0E10E94D50186
:10014000A6E0B1E00C93ECE3F4E00E94B9010E9458
:10015000830136E00E946401A8EAB0E10E94D50163
:10016000A2E0B1E00D931C931B9A1C9A009106012A
:10017000013011F00C94DB0081E090E0A4E0B1E0EC
:100180008D939C93A2E0B1E04D915C91A4E0B1E02D
:100190000D911C910417150718F011F00C94D9005B
:1001A0000E943B01A4E0B1E00E945D0110F40C94B8
:1001B000C2000C94F80081E090E0A4E0B1E08D93DF
:1001C0009C93A2E0B1E04D915C91A4E0B1E00D916F
:1001D0001C910417150718F011F00C94F8000E94F8
:1001E0001A01A4E0B1E00E945D0110F40C94E1005A
:1001F0001B981C980C948A00F894FFCFA1E0B1E002
:100200008C9187FB16F40C940E01709101017068BB
:10021000709301011B981C980C94150170910101B9
:100220007F77709301011B9A1C9A84E690E00E94EC
:100230009A010895C498C59AC69AC79A8AE090E030
:100240000E949A01C49AC598C69AC79A8AE090E01B
:100250000E949A01C49AC59AC698C79A8AE090E00B
:100260000E949A01C49AC59AC69AC7988AE090E0FB
:100270000E949A010895C49AC59AC69AC7988AE0BE
:1002800090E00E949A01C49AC59AC698C79A8AE0DB
:1002900090E00E949A01C49AC598C69AC79A8AE0CB
:1002A00090E00E949A01C498C59AC69AC79A8AE0BB
:1002B00090E00E949A0108950895ED91FC91EF5FFE
:1002C000FF4FFC93EE930895A8EAB0E118D0883070
:1002D00091F08D3039F03323C9F38D933A9563FE55
:1002E0001CD0F4CF63FC04C08DE017D08AE015D099
:1002F00088278C93089511D011973395E7CF5F9B92
:10030000FECF8CB108950E94A901802D11F005D077
:10031000FACF08958DE001D08AE05D9BFECF8CB9C5
:1003200008953197F1F70895689462F80895E89474
:1003300062F80895EF93FF93EE27E82BE92B31F055
:10034000E0EDF7E03197F1F70197D1F7FF91EF91E9
:100350000895D895319628F48F938BB783958BBFEA
:100360008F91002008950F9301E00BBF0F918894A7
:1003700008950F930027F9CF0F9302E0F6CF0F9364
:1003800003E0F3CF040F151F261F371F0895000F3A
:10039000111F221F331F0895009510952095309549
:1003A0000F5F1F4F2F4F3F4F089500271127222720
:1003B00033271DD08A3328F4803318F005D015D0A8
:1003C000F9CF0EF4E9CF089580538F93402F512F2A
:1003D000622F732FDCDFDBDFD5DFD9DF8F91992729
:1003E000080F191F291F391F08958D910895E8944A
:1003F000FCDF8032E9F38B32D9F38930C9F38D32D7
:1004000011F46894F2CF0895535441525400496E48
:100410007365727420646972656374696F6E2031EC
:100420002D6C6566742C20616E79206E756D206B65
:100430006579732072696768743A3D00496E736527
:100440007274207374656570206379636C65733AA8
:040450003D2000004B
:00000001FF
