:100000000C94460018950000189500001895000003
:10001000189500001895000018950000189500002C
:10002000189500001895000018950000189500001C
:10003000189500001895000018950000189500000C
:1000400018950000189500000C94F4000C94200101
:1000500018950000189500001895000018950000EC
:1000600018950000189500001895000018950000DC
:1000700018950000189500001895000018950000CC
:100080001895000018950000189500008FEF8DBF9F
:10009000C8EDE0EC4E2E80E18EBFD0E1F0E15F2EA6
:1000A000A89584B7082E877F84BF88E1992781BDF2
:1000B00091BDEEEFFFE0A0E0B1E088278D9331978E
:1000C000E9F783E389B980E08093900088E18AB9F9
:1000D0006624579A78940E948700082F013011F007
:1000E0000C947E0031E0A3E4B1E00E948200A3E41E
:1000F000B1E08C910E94B4000E94B1000C946B009E
:10010000F894FFCF0AD08D933A95E1F70895809146
:100110002101882309F081E008950F929F93AF9306
:10012000BF937F93809121018823E1F3F89480911C
:1001300021018A958093210190911F01A1E0B1E0F6
:10014000A90F0024B01D8C9193959E3109F4992735
:1001500090931F0178947F91BF91AF919F910F90E1
:1001600008958DE001D08AE09F939FB79F93AF934E
:10017000BF930F937F93909142019E31E1F3F894E6
:1001800090914201939590934201992700914101EA
:10019000A2E2B1E0A00FB91F8C9303950E3109F4D0
:1001A000002700934101559A7F910F91BF91AF9124
:1001B0009F919FBF9F9108953197F1F7089568949B
:1001C00062F80895E89462F808950F9301E00BBF78
:1001D0000F91889408950F930027F9CF0F9302E0B1
:1001E000F6CF0F9303E0F3CF7F930F93AF93BF93BB
:1001F0008F939F938FB78F93809121010EE1081BFE
:1002000021F49CB10E94DF0012C000912001A1E006
:10021000B1E077279CB1A00FB71F9C938395809383
:10022000210103950E3109F40027009320018F91DD
:100230008FBF9F918F91BF91AF910F917F91189533
:100240007F93AF93BF938F939F938FB78F9390912B
:100250004201992399F09A95909342019927A2E23D
:10026000B1E080914001A80FB91F9C9183958E3118
:1002700009F48827809340019CB901C055988F915B
:0E0280008FBF9F918F91BF91AF917F91189585
:00000001FF
