:100000000C94460018950000189500001895000003
:10001000189500001895000018950000189500002C
:10002000189500001895000018950000189500001C
:10003000189500001895000018950000189500000C
:1000400018950000189500001895000018950000FC
:10005000189500000C948600189500001895000073
:1000600018950000189500001895000018950000DC
:1000700018950000189500001895000018950000CC
:100080001895000018950000189500008FEF8DBF9F
:10009000C8EDE0EC4E2E80E18EBFD0E1F0E15F2EA6
:1000A000A89584B7082E877F84BF88E1992781BDF2
:1000B00091BDEEEFFFE0A0E0B1E088278D9331978E
:1000C000E9F70E94C301662486E886B980E487B90F
:1000D0008CE00E9416027894339A0E947B000E9462
:1000E000D2000E943F01E2E0F0E00E94BD010C94CA
:1000F0006D00F894FFCF84E080930F01379A75B7B5
:10010000737C706275BF8895379808950F921F921F
:100110002F923F924F925F927F92AF92BF920F9336
:100120001F932F933F934F935F936F937F938F937F
:100130009F93AF93BF93CF93DF93EF93FF938FB7CB
:100140008F938BB78F9388278BBF07B1007EAFE06B
:10015000B1E08C9190E0890F082707B90E94E8046C
:10016000A1E0B1E08D939C938F918BBF8F918FBF56
:10017000FF91EF91DF91CF91BF91AF919F918F91BF
:100180007F916F915F914F913F912F911F910F91AF
:10019000BF90AF907F905F904F903F902F901F90B7
:1001A0000F901895E1E0F1E0D190E080FF24002766
:1001B0000E940D050E943605E2E6FDE00E942E0633
:1001C0000E940F060E94A805EDE0F0E0A3E0B1E078
:1001D0000E943706E3E0F1E00E940005E1E0F1E073
:1001E000D190E080FF2400270E940D050E94510558
:1001F000EDE0F0E0A3E0B1E00E943706E3E0F1E0DB
:100200000E945206EDE0F0E0A3E0B1E00E94370664
:10021000E6E6FDE00E942E060E941806E3E0F1E00B
:100220000E94FB040E94B705EDE0F0E0A3E0B1E01E
:100230000E943706E3E0F1E00E940005EAE6FDE0F7
:100240000E942E060E940F060E945105EDE0F0E08C
:10025000A3E0B1E00E943706EEE6FDE00E942E0624
:100260000E941806E3E0F1E00E94FB040E94A8054A
:10027000EDE0F0E0A7E0B1E00E94370608950E94AB
:1002800078010E94AC018FE711E00E94BA01EAE711
:10029000FDE00E942E060E94A501A8EAB0E1E7E079
:1002A000F1E0552742E00E9429030E949D01E4E805
:1002B000FDE00E942E060E94A5018FEB11E00E9436
:1002C000BA01EAE7FDE00E942E060E94A501A8EA15
:1002D000B0E1EBE0F1E0552742E00E9429030E94E3
:1002E0009D01E8E8FDE00E942E060E94A501089508
:1002F000E7E0F1E00E940005E2E7FDE00E942E0643
:100300000E940F060E94D302EDE0F0E0ABE0B1E006
:100310000E943706E6E7FDE00E942E060E941806BE
:10032000EBE0F1E00E94FB040E94B705EDE0F0E095
:10033000ABE0B1E00E9437060895A8EAB0E18D91E4
:10034000882311F068D0FBCF08950E940506802D08
:1003500011F061D0FACF089581E068D080E866C0DE
:100360008FE7213039F08FEB223021F08FE82330F6
:1003700009F08FEC810F0C94160288EE93E0EED01A
:100380003197D9F70895709165007D7F709365006E
:10039000709165007B7F70936500709165007E7F32
:1003A0007093650070916400726070936400709146
:1003B0006400746070936400709164007160709365
:1003C0006400B4D0A49AA59AA69AA79A88E290E06D
:1003D0000E94AE02AC9AAD9A8DD085E090E00E946A
:1003E000AE0288D0EF93FF93ECEEF0E00E94A502FE
:1003F000FF91EF917FD0EF93FF93ECEEF0E00E943E
:10040000A502FF91EF91AC9875D088E20FD08EE0F5
:100410000DD086E00BC00CD07091650071607093B8
:10042000650089D067D0829586D064C001D0F9CFAD
:10043000709165007D7F70936500709165007B7F92
:1004400070936500709165007E7F70936500709178
:1004500064007260709364007091640074607093C3
:100460006400709164007160709364005FD0A49820
:10047000A598A698A7987091650074607093650020
:1004800070916500726070936500000000000000CC
:10049000000000000000000000000000000000005C
:1004A00000000000000000000000000003B2709196
:1004B00065007D7F70936500000000000000000073
:1004C000000000000000000000000000000000002C
:1004D000000000000000000000000CD007FCD0CF9E
:1004E000709165007B7F70936500A49AA59AA69A87
:1004F000A79A08957091650072607093650000007E
:1005000000000000000000000000000000000000EB
:1005100000000000000000000000000000000000DB
:10052000709165007D7F709365000895AC98AD98DB
:10053000AE98AF980895FADF84FDAC9A85FDAD9A28
:1005400086FDAE9A87FDAF9A08953197F1F7089529
:10055000689462F80895E89462F80895EF93FF9321
:10056000EE27E82BE92B31F0E0EDF7E03197F1F7DA
:100570000197D1F7FF91EF9108958F939F93D21632
:10058000E306F4060FB680E890E8802795270FBEB3
:1005900089070FB6892B87FD02C091E009260FBE9F
:1005A0009F918F91089543D0A9F0503899F0162764
:1005B000050F1BF40AF0A2C2A8C203951BD0FF20AE
:1005C0002AF0BB0CDD1CEE1CFF1C02C003951BF0C7
:1005D00003D01BC29AC292C2B7FE089590E8B91622
:1005E00011F4D0FE08959FEFD91AE90AF90A09F427
:1005F00003950895FF92EF928D2DFF24EE24DD24C4
:10060000BB2493E0849F1001829FB00CD11CE21C9C
:10061000F31C839FD00CE11C2224F21C9A9531F02C
:10062000BD2CDE2CEF2CFF248F91ECCF0895652F8D
:1006300090E8440F551F5927990F47956078102F60
:1006400090E8FF0C001F0927990FF79410780038E5
:100650000895D1D1F4DF17FF03C08DE28D931127E8
:10066000003831F4E8E6F9E00E942E060C94E2042A
:100670000F3761F4FF2029F4EEE5F9E00E942E0621
:10068000F5CFEAE5F9E00E942E06F0CF4A934A93AF
:100690004A935A93BA93AA93BB270F5F12F5BB27CD
:1006A000802F0A95B2D18D3EA0F4E8EBF9E00E94CC
:1006B0002E06A3E00E94180660DFBB1FB0FF07C034
:1006C000709743D10E9418066EDF3C9636D1AA95EA
:1006D00089F7E4EBF9E00E942E060E94180663DF1A
:1006E00025C0093068F1033198F10A3140F418E06F
:1006F0008BE192E9ECE6F9E00E942E0632C00A9501
:1007000084D1ECEAF9E00E942E06BFEFA3E00E943C
:10071000180633DFBB1FB0FD07C038960ED10E940C
:10072000180641DF3C9711D1AA9589F7B095BB0F08
:1007300086DF039513E08AEF99E0F816090750F475
:1007400013E08BE094E0E0E8F9E00E942E0609C097
:1007500016E001C0B39583E194E2E4E7F9E00E947A
:100760002E066A81BF3F19F4BB2711276260BD8343
:100770006A831C83A881B98160E36D93A883B983E0
:100780006D93081B0195AA24BB246A816A7F00230C
:1007900039F0F694E794D794B794A7940A95F7CFD5
:1007A00019E000270E941806CC248FEF74E0AC14E7
:1007B000B206D306E406F50630F0AC18B20AD30A46
:1007C000E40AF50A21F1881F7A9531F0569547958C
:1007D00037952795C794EBCF809522D041F0969519
:1007E00008F7FE2CED2CDB2CBA2CAA24DBCF25D06D
:1007F0005D813C812B8170D0277021F02BD06CD093
:10080000E8F301C03CD04CD078D026960895889467
:10081000881F7A95E9F7809503D049F38827FCCFA4
:10082000806360FD06C0803311F0616002C00395F3
:1008300061FD8D9360FD1A95089599278E919C9383
:1008400085338E9108F083958A3308F080E38C938A
:10085000C0F70895732F720F61FF701B0AD01296B4
:10086000785019F050F38E9380E38E937150EAF72D
:100870000895A881B981A70F8827B81F089579E046
:1008800061FD700FF6DF48E0431B400F8AF381F3F0
:1008900099274A9569F38E91803351F79C93F9CF4C
:1008A000732F61FF701B7395A881B981EA2FFB2F0D
:1008B00011978191803361FF09F08D937A9511F43E
:1008C0008EE28D9381918823C1F7772311F480E321
:1008D0008D9388278C930895889462FD0895002352
:1008E00059F4A881B9818C91803331F0552321F0DE
:1008F000539533506460089408955523E9F085E4D6
:100900008D931AF48DE28D935195652F660F560FD6
:100910005A3010F060E503D068E001D0DACF8FEFF5
:1009200074E0561708F0561B881F7A9511F06695EB
:10093000F8CF809580638D93089508F008958F9384
:100940008BB783958BBF8F91089508F008958F938F
:100950008BB78A958BBF8F9108954E414E00496E9B
:1009600066696E6974790000302E300000404B4C8F
:100970000020A107000050C3000088130000F4010C
:10098000000000320000000500008000CCCCCC0C40
:1009900014AE47019CC42000DC460300E353000072
:1009A00063080000D7000000150000001CC2536758
:1009B000A5D468530024744915BE9A17CCBC8C2B5F
:1009C000BD3786350E9405060D920020D9F708959F
:1009D000369A3699FECF369A3699FECF84B195B1C4
:1009E0000895D094E094F09491E0D90E9927E91EEF
:1009F000F91E10950895D190E190F190019108951C
:100A000021913191419151910895FF0C90E89027E7
:100A1000110F9795F794092F0895102FBD2CDE2CF8
:100A2000EF2CF02E11234AF4B094D094E094F0947B
:100A30009FEFB91AD90AE90AF90A0EE1FF2039F441
:100A4000FE2CED2CDB2CBB240850C2F75EC032F02C
:100A50000A95BB0CDD1CEE1CFF1CF9CF0E94EC02BA
:100A6000D4CFDD92ED92FD920C930895502F2D2D51
:100A70003E2D4F2D612F08952DEC3CEC4CEC5DE3A9
:100A800066270FC0B8DFF2DFDD24EE2490E8F92EF0
:100A90000FE307C0B5DF05C02227332740E251E44A
:100AA0006627552351F1002381F1C1DD71F116272D
:100AB000005850580894050B18F407FD03C025C0D2
:100AC00007FD23C0469537952795F694E794D7946C
:100AD00022D0FF202AF0DD0CEE1CFF1C015073F029
:100AE0009D2D969548F0DD203AF4EE202AF491E011
:100AF000D90E9927E91EF91E88CF07C09FE7092F55
:100B0000F92A9FEFD92EE92E0895DD24EE24FF2443
:100B10000027112708959F929924AA24BB2488E1D5
:100B2000D216E306F40628F0D21AE30AF40A08946F
:100B300001C08894991CAA1CBB1CDD0CEE1CFF1C78
:100B40008A9571F7D92CEA2CFB2C9F90089558DFD9
:100B50006EDD503829F090E869270CC00AF045D0C6
:100B600054CF5FE322273327442701C049DF5FDDED
:100B70005038B1F3003899F3902F951B8BF312F492
:100B800034D0FACF983118F02227332744279830F1
:100B900028F0232F342F44279850F9CF992329F098
:100BA0004695379527959A95D9F7912F962742F034
:100BB00014D0B0F6F794E794D7940F5F8BF69ECFDE
:100BC00010D051F008F40DDFFF2052F2DD0CEE1CC6
:100BD000FF1C0150CBF792CF98CFD20EE31EF41E2C
:100BE0000895D21AE30AF40A0895DF92EF92FF9271
:100BF0000F931F93D22EE32EF42E052F162F6F91F5
:100C00005F914F913F912F910895D895319628F497
:100C10008F938BB783958BBF8F9100200895F5DF5D
:100C2000D02CF3DFE02CF1DFF02CEFDF002D089566
:100C3000ECDF202DEADF302DE8DF402DE6DF502D00
:100C4000089500240D280E280F28002A002008955A
:100C50000F9301E00BBF0F91889408950F93002725
:100C6000F9CF0F9302E0F6CF0F9303E0F3CF94E0B8
:100C700081918D939A95E1F7089588E00FB6F894E5
:100C80005A924A92E42DF52DA42DB52D480E8827B1
:100C9000581E0FBE08950FB6F894499059900FBE94
:100CA000089533CFA8DE0023E2F3CBDF19F426DF6B
:100CB0000068089585E0E2DFFF0C001F04830FE762
:100CC0000695F79449D0506852DFCBDE139721E4A4
:100CD00038E743ED5BEB67DC27E831ED43E15DE3AB
:100CE00037D02EE03CE343EC5DEB32D022E83DEA26
:100CF0004BE25EE32DD02CEE32E846E75EEB28D0E7
:100D000020E931EE49EA5EE323D020E83FEE4FEFE1
:100D10005EEB1ED024EC3FEF4FE75FE319D0A1DE7E
:100D2000139784818F5799F02AF4D82E0FEFE02E75
:100D3000F02E04C0D82EEE24FF2400276EDE28E11A
:100D400032E741E35FE32FDC5BDE349710DFA3CFB4
:100D50000EDF56DE349727CC5FE340E833272227A7
:100D60000895000080441B30644100D08445008019
:100D700088436666E63F0000004254656D70206956
:0C0D8000733A20002043000020660000B1
:00000001FF
