:100000000C94460018950000189500001895000003
:10001000189500001895000018950000189500002C
:10002000189500001895000018950000189500001C
:10003000189500001895000018950000189500000C
:1000400018950000189500001895000018950000FC
:1000500018950000189500001895000018950000EC
:1000600018950000189500001895000018950000DC
:1000700018950000189500001895000018950000CC
:100080001895000018950000189500008FEF8DBF9F
:10009000C8EDE0EC4E2E80E18EBFD0E1F0E15F2EA6
:1000A000A89584B7082E877F84BF88E1992781BDF2
:1000B00091BDEEEFFFE0A0E0B1E088278D9331978E
:1000C000E9F783E389B980E08093900088E18AB9F9
:1000D0006624139A149A81EA80938B0083E08093BC
:1000E0008A00BD9AC59ABC9AC49ABF9AC79ABE9A0A
:1000F000C69AE0E9F2E00E943F010E9418010E94C6
:100100001F010E940C01082F013011F00C94C9004E
:100110000E941001A1E0B1E08C9381E4482F00918E
:100120000101041711F00C9499000E94CD000C9469
:10013000C90082E4482F041711F00C94A3000E9418
:10014000D0000C94C90083E4482F041711F00C94DC
:10015000AD000E94D3000C94C90084E4482F04171A
:1001600011F00C94B7000E94D6000C94C90085E4ED
:10017000482F041711F00C94C1000E94D9000C9470
:10018000C90086E4482F041711F00C94C9000E949E
:10019000F0000C948100F894FFCFC598C49808959E
:1001A000C59AC49A0895C598C4980895C59AC49AE2
:1001B0000895A6E8B0E00D911C910F3F50E015079F
:1001C00010F00C94EF00A6E8B0E00D911C9145E012
:1001D00050E0040F151FA6E8B0E00D931C9308959E
:1001E000A6E8B0E00D911C91003050E0150718F022
:1001F00011F00C94FD000C940B01A6E8B0E00D91F9
:100200001C9145E050E0041B150B802F912F90931B
:100210004B0080934A00089581E05F9B88270895F2
:1002200088275F9B089500C05F9BFECF8CB1089527
:100230000E942F01802D11F005D0FACF08958DE096
:1002400001D08AE05D9BFECF8CB908953197F1F71C
:100250000895689462F80895E89462F80895D8952E
:10026000319628F48F938BB783958BBF8F910020A5
:1002700008950F9301E00BBF0F91889408950F9399
:100280000027F9CF0F9302E0F6CF0F9303E0F3CFEF
:06029000535441525400DA
:00000001FF
