:100000000C94460018950000189500001895000003
:10001000189500001895000018950000189500002C
:10002000189500001895000018950000189500001C
:10003000189500001895000018950000189500000C
:1000400018950000189500001895000018950000FC
:1000500018950000189500001895000018950000EC
:1000600018950000189500001895000018950000DC
:1000700018950000189500001895000018950000CC
:100080001895000018950000189500008FEF8DBF9F
:10009000C8EDE0EC4E2E80E18EBFD0E1F0E15F2EA6
:1000A000A89584B7082E877F84BF88E1992781BDF2
:1000B00091BDEEEFFFE0A0E0B1E088278D9331978E
:1000C000E9F783E389B980E08093900088E18AB9F9
:1000D0000E9427016624139A14981C9A8CE00E94AF
:1000E0007A010E9423011498A3E0B1E09C9197FF4C
:1000F00004C00C9B10C09F779C930C990CC089E1A5
:100100009F9399270E9412029F910C9904C09068B6
:100110009C930E94A1000E940101082F013011F060
:100120000C949D000E940501A1E0B1E08D93882709
:100130008C93A1E0B1E00E941D010C947300F8942F
:10014000FFCF1B9AE4E7F4E00E9431020E940D0108
:100150000E9414015E9BFECF5E9A1B981B9AE0E9F9
:10016000F4E00E9431020E940D010E9414015E9B86
:10017000FECF5E9A1B981B9AE0EAF4E00E943102DF
:100180000E940D010E9414015E9BFECF5E9A1B9897
:100190001B9AECEBF4E00E9431020E940D010E94D8
:1001A00014015E9BFECF5E9A1B981B9AECECF4E068
:1001B0000E9431020E940D010E9414015E9BFECF3D
:1001C0005E9A1B981B9AE0EEF4E00E9431020E94B6
:1001D0000D010E9414015E9BFECF5E9A1B981B9A34
:1001E000ECEEF4E00E9431020E940D010E94140125
:1001F0005E9BFECF5E9A1B9888EC90E00E941202F4
:10020000089581E05F9B8827089588275F9B089564
:1002100000C05F9BFECF8CB108950E942102802D0B
:1002200011F005D0FACF08958DE001D08AE05D9BF2
:10023000FECF8CB90895A8EAB0E18D91882311F022
:100240004ED0FBCF089581E055D080E853C0709127
:1002500065007D7F70936500709165007B7F709372
:100260006500709165007E7F7093650070916400F9
:1002700072607093640070916400746070936400A5
:1002800070916400716070936400B4D0A49AA59AD0
:10029000A69AA79A88E290E00E941202AC9AAD9AC0
:1002A0008DD085E090E00E94120288D0EF93FF93FA
:1002B000ECEEF0E00E940902FF91EF917FD0EF9306
:1002C000FF93ECEEF0E00E940902FF91EF91AC98F1
:1002D00075D088E20FD08EE00DD086E00BC00CD038
:1002E0007091650071607093650089D067D08295C8
:1002F00086D064C001D0F9CF709165007D7F709386
:100300006500709165007B7F70936500709165005A
:100310007E7F7093650070916400726070936400DA
:1003200070916400746070936400709164007160F7
:10033000709364005FD0A498A598A698A798709130
:1003400065007460709365007091650072607093D1
:100350006500000000000000000000000000000038
:10036000000000000000000000000000000000008D
:100370000000000003B2709165007D7F70936500FE
:10038000000000000000000000000000000000006D
:10039000000000000000000000000000000000005D
:1003A00000000CD007FCD0CF709165007B7F70936C
:1003B0006500A49AA59AA69AA79A089570916500D7
:1003C00072607093650000000000000000000000F3
:1003D000000000000000000000000000000000001D
:1003E0000000000000000000709165007D7F7093A8
:1003F00065000895AC98AD98AE98AF980895FADF6F
:1004000084FDAC9A85FDAD9A86FDAE9A87FDAF9AC4
:1004100008953197F1F70895689462F80895E89483
:1004200062F80895EF93FF93EE27E82BE92B31F064
:10043000E0EDF7E03197F1F70197D1F7FF91EF91F8
:100440000895D895319628F48F938BB783958BBFF9
:100450008F91002008950F9301E00BBF0F918894B6
:1004600008950F930027F9CF0F9302E0F6CF0F9373
:1004700003E0F3CF54686973206973205253343812
:100480003520546573742050726F6772616D00007F
:1004900042617365642D6F6E204D415834383500CC
:1004A000556E6976657273697479206F6620416C48
:1004B0006570706F2D5379726961000046616375D4
:1004C0006C7479206F66204545450000436F6E745B
:1004D000726F6C204465706172746D656E7400009B
:1004E00057616C69642042414C4944003A2900003C
:00000001FF
