:100000000C94460018950000189500001895000003
:10001000189500001895000018950000189500002C
:10002000189500001895000018950000189500001C
:10003000189500001895000018950000189500000C
:1000400018950000189500001895000018950000FC
:1000500018950000189500001895000018950000EC
:1000600018950000189500001895000018950000DC
:1000700018950000189500001895000018950000CC
:100080001895000018950000189500008FEF8DBF9F
:10009000C8EDE0EC4E2E80E18EBFD0E1F0E15F2EA6
:1000A000A89584B7082E877F84BF88E1992781BDF2
:1000B00091BDEEEFFFE0A0E0B1E088278D9331978E
:1000C000E9F783E389B980E08093900088E18AB9F9
:1000D0006624EAEEF2E00E9405010E94A1000E945F
:1000E000A80056E0E0E30E94C700A1E0B1E00D9354
:1000F0001C93A1E0B1E08D919C91A3E0B1E08D93C0
:100100009C93E0EFF2E00E9405010E94A100A8EAA2
:10011000B0E1E1E0F1E00E941C010E9499000E9420
:10012000A80084EF91E00E94B8000C947100F8944C
:10013000FFCFA8EAB0E18D91882311F00CD0FBCF5E
:1001400008950E94F500802D11F005D0FACF089592
:100150008DE001D08AE05D9BFECF8CB90895319788
:10016000F1F70895689462F80895E89462F80895A4
:10017000EF93FF93EE27E82BE92B31F0E0EDF7E06A
:100180003197F1F70197D1F7FF91EF910895FF278C
:1001900081E0552321F08894881F5A95E9F7582F5C
:1001A0000027112760916100652B609361007091B9
:1001B0006200752B7093620082E399270E94B80059
:1001C000651B60936100751B7093620080B185238D
:1001D00059F0650F60936100651B609361000395A2
:1001E000A9F7139509F0F2CF0895D895319628F420
:1001F0008F938BB783958BBF8F91002008950F93BA
:1002000001E00BBF0F91889408950F930027F9CF59
:100210000F9302E0F6CF0F9303E0F3CF000F111F0F
:10022000221F331F089500951095209530950F5F7C
:100230001F4F2F4F3F4F0895019110810EC0019124
:100240001191219130810BC00191108117FF05C0E0
:100250003FEF2FEF04C0008111272227332737FFFC
:1002600003C0E1DF8DE28D93CF93DF93CF92DF92D6
:10027000EF92AA24BB24CC24DD24EE2440E2CAE081
:10028000DD2755E093E38881890F87FD9F7083FD0B
:10029000907F891B89935A95A9F7C0DFAA1CBB1CC4
:1002A000CC1CDD1CEE1C4A9551F7E894EFE0FF27CB
:1002B00082910ED0EB30E0F71EF068948A2D0CD0BE
:1002C00088278D93EF90DF90CF90DF91CF910895A5
:1002D000982F829501D0892F8F70805D26F0803312
:1002E00009F4089568948D930895537461727400AD
:0C02F00052432056616C7565203A2000D6
:00000001FF
