:100000000C94460018950000189500001895000003
:10001000189500001895000018950000189500002C
:10002000189500001895000018950000189500001C
:10003000189500001895000018950000189500000C
:1000400018950000189500001895000018950000FC
:1000500018950000189500001895000018950000EC
:1000600018950000189500001895000018950000DC
:1000700018950000189500001895000018950000CC
:100080001895000018950000189500008FEF8DBF9F
:10009000C8EDE0EC4E2E80E18EBFD0E1F0E15F2EA6
:1000A000A89584B7082E877F84BF88E1992781BDF2
:1000B00091BDEEEFFFE0A0E0B1E088278D9331978E
:1000C000E9F70E9465016624BE9AC6980E94540210
:1000D0008CE00E94B80180E090E0A3E0B1E08D9355
:1000E0009C930E9494000E94D10082E390E00E94C1
:1000F0007E02A3E0B1E00E943E01A3E0B1E00D91D9
:100100001C910F3F5FE0150718F011F00C948A0066
:100110000C94900080E090E0A3E0B1E08D939C937C
:100120000C947100F894FFCFA3E0B1E011968C918C
:10013000A1E0B1E08C93E894A1E0B1E08C9187F963
:100140008C93E894A1E0B1E08C9186F98C9368944B
:10015000A1E0B1E08C9185F98C936894A1E0B1E0C5
:100160008C9184F98C93A3E0B1E08C91A2E0B1E092
:100170008C93C698EF93FF93E4E2F0E00E9447026D
:10018000FF91EF9192E0A1E0B1E00E944A02EF936B
:10019000FF93E4E2F0E00E944702FF91EF91C69ADC
:1001A0000895ECEDFBE00E9478050E946905E3E00C
:1001B000F1E0D190E080FF2400270E94CA040E9451
:1001C000A302EDE0F0E0A5E0B1E00E94E805E0EE7A
:1001D000FBE00E9478050E946905E5E0F1E00E94DD
:1001E000B8040E940905EDE0F0E0A5E0B1E00E944E
:1001F000E805A3E0B1E00D911C91003050E0150737
:1002000011F00C9423010E9454018FE711E00E9429
:100210006201E4EEFBE00E9478050E944D018FEB45
:1002200011E00E946201EEEEFBE00E9478050E9460
:100230004D018FEB10E10E946201E8EFFBE00E94AC
:1002400078050E944D018FE71AE00E946201A8EA3A
:10025000B0E1E3E0F1E00E948F050E9445018FEBE1
:100260001AE00E946201A8EAB0E1E5E0F1E055275A
:1002700043E00E94F9020E9445010895ED91FC912E
:10028000EF5FFF4FFC93EE930895A8EAB0E18D91E4
:10029000882311F062D0FBCF08950E945F05802D66
:1002A00011F05BD0FACF089581E062D080E860C0A1
:1002B0008FE7213039F08FEB223021F08FE82330A7
:1002C00009F08FEC810F0C94B801709165007D7F6F
:1002D00070936500709165007B7F709365007091ED
:1002E00065007E7F7093650070916400726070930A
:1002F0006400709164007460709364007091640095
:10030000716070936400B4D0A49AA59AA69AA79A33
:1003100088E290E00E947E02AC9AAD9A8DD085E092
:1003200090E00E947E0288D0EF93FF93ECEEF0E025
:100330000E944702FF91EF917FD0EF93FF93ECEE85
:10034000F0E00E944702FF91EF91AC9875D088E2EF
:100350000FD08EE00DD086E00BC00CD07091650000
:1003600071607093650089D067D0829586D064C033
:1003700001D0F9CF709165007D7F70936500709119
:1003800065007B7F70936500709165007E7F709340
:1003900065007091640072607093640070916400F5
:1003A0007460709364007091640071607093640075
:1003B0005FD0A498A598A698A798709165007460DE
:1003C0007093650070916500726070936500000025
:1003D000000000000000000000000000000000001D
:1003E000000000000000000000000000000000000D
:1003F00003B2709165007D7F70936500000000007E
:1004000000000000000000000000000000000000EC
:1004100000000000000000000000000000000CD000
:1004200007FCD0CF709165007B7F70936500A49A24
:10043000A59AA69AA79A0895709165007260709324
:100440006500000000000000000000000000000047
:10045000000000000000000000000000000000009C
:1004600000000000709165007D7F70936500089525
:10047000AC98AD98AE98AF980895FADF84FDAC9A29
:1004800085FDAD9A86FDAE9A87FDAF9A08953197A6
:10049000F1F708950E945A028D910E945E029A958A
:1004A000D9F70E945D020895C198B99AC298BA9A84
:1004B000BF980895C198C2980895089508E0880FDC
:1004C00010F4C29A02C0C2980000C19AE0E1F0E0C4
:1004D0000E944702B7998395E0E1F0E00E9447024D
:1004E000C198E0E1F0E00E9447020A9541F70895C3
:1004F000689462F80895E89462F80895EF93FF9382
:10050000EE27E82BE92B31F0E0EDF7E03197F1F73A
:100510000197D1F7FF91EF9108958F939F93D21692
:10052000E306F4060FB680E890E8802795270FBE13
:1005300089070FB6892B87FD02C091E009260FBEFF
:100540009F918F91089543D0A9F0503899F01627C4
:10055000050F1BF40AF08AC290C203951BD0FF203E
:100560002AF0BB0CDD1CEE1CFF1C02C003951BF027
:1005700003D008C282C27AC2B7FE089590E8B916C5
:1005800011F4D0FE08959FEFD91AE90AF90A09F487
:1005900003950895FF92EF928D2DFF24EE24DD2424
:1005A000BB2493E0849F1001829FB00CD11CE21CFD
:1005B000F31C839FD00CE11C2224F21C9A9531F08D
:1005C000BD2CDE2CEF2CFF248F91ECCF0895652FEE
:1005D00090E8440F551F5927990F47956078102FC1
:1005E00090E8FF0C001F0927990FF7941078003846
:1005F0000895BED1F4DF17FF03C08DE28D9311275C
:10060000003831F4E8E0F9E00E9478050C94B20477
:100610000F3761F4FF2029F4EEEFF8E00E9478052F
:10062000F5CFEAEFF8E00E947805F0CF4A934A93BD
:100630004A935A93BA93AA93BB270F5F12F5BB272D
:10064000802F0A959FD18D3EA0F4E8E5F9E00E9445
:100650007805A3E00E94690560DFBB1FB0FF07C0FB
:10066000709743D10E9469056EDF3C9636D1AA95FA
:1006700089F7E4E5F9E00E9478050E94690563DFE7
:1006800025C0093068F1033198F10A3140F418E0CF
:100690008BE192E9ECE0F9E00E94780532C00A951E
:1006A00071D1ECE4F9E00E947805BFEFA3E00E946D
:1006B000690533DFBB1FB0FD07C038960ED10E941D
:1006C000690541DF3C9711D1AA9589F7B095BB0F19
:1006D00086DF039513E08AEF99E0F816090750F4D6
:1006E00013E08BE094E0E0E2F9E00E94780509C0B5
:1006F00016E001C0B39583E194E2E4E1F9E00E94E1
:1007000078056A81BF3F19F4BB2711276260BD835A
:100710006A831C83A881B98160E36D93A883B98340
:100720006D93081B0195AA24BB246A816A7F00236C
:1007300039F0F694E794D794B794A7940A95F7CF35
:1007400019E000270E946905CC248FEF74E0AC14F7
:10075000B206D306E406F50630F0AC18B20AD30AA6
:10076000E40AF50A21F1881F7A9531F056954795EC
:1007700037952795C794EBCF809522D041F0969579
:1007800008F7FE2CED2CDB2CBA2CAA24DBCF25D0CD
:100790005D813C812B8170D0277021F02BD06CD0F3
:1007A000E8F301C03CD04CD078D0269608958894C8
:1007B000881F7A95E9F7809503D049F38827FCCF05
:1007C000806360FD06C0803311F0616002C0039554
:1007D00061FD8D9360FD1A95089599278E919C93E4
:1007E00085338E9108F083958A3308F080E38C93EB
:1007F000C0F70895732F720F61FF701B0AD0129615
:10080000785019F050F38E9380E38E937150EAF78D
:100810000895A881B981A70F8827B81F089579E0A6
:1008200061FD700FF6DF48E0431B400F8AF381F350
:1008300099274A9569F38E91803351F79C93F9CFAC
:10084000732F61FF701B7395A881B981EA2FFB2F6D
:1008500011978191803361FF09F08D937A9511F49E
:100860008EE28D9381918823C1F7772311F480E381
:100870008D9388278C930895889462FD08950023B2
:1008800059F4A881B9818C91803331F0552321F03E
:10089000539533506460089408955523E9F085E436
:1008A0008D931AF48DE28D935195652F660F560F37
:1008B0005A3010F060E503D068E001D0DACF8FEF56
:1008C00074E0561708F0561B881F7A9511F066954C
:1008D000F8CF809580638D93089508F008958F93E5
:1008E0008BB783958BBF8F91089508F008958F93F0
:1008F0008BB78A958BBF8F9108954E414E00496EFC
:1009000066696E6974790000302E300000404B4CEF
:100910000020A107000050C3000088130000F4016C
:10092000000000320000000500008000CCCCCC0CA0
:1009300014AE47019CC42000DC460300E3530000D2
:1009400063080000D7000000150000001CC25367B8
:10095000A5D468530024744915BE9A17CCBC8C2BBF
:10096000BD3786350E945F050D920020D9F70895A6
:10097000D190E190F19001910895219131914191AF
:1009800051910895FF0C90E89027110F9795F794D7
:10099000092F0895102FBD2CDE2CEF2CF02E1123E3
:1009A0004AF4B094D094E094F0949FEFB91AD90A25
:1009B000E90AF90A0EE1FF2039F4FE2CED2CDB2CBC
:1009C000BB240850C2F759C032F00A95BB0CDD1C9D
:1009D000EE1CFF1CF9CF0E94BC02D4CF502F2D2D4E
:1009E0003E2D4F2D612F08952DEC3CEC4CEC5DE33A
:1009F00066270FC0BDDFF2DFDD24EE2490E8F92E7C
:100A00000FE307C0BADF05C02227332740E251E4D5
:100A10006627552351F1002381F1D9DD71F11627A5
:100A2000005850580894050B18F407FD03C025C062
:100A300007FD23C0469537952795F694E794D794FC
:100A400022D0FF202AF0DD0CEE1CFF1C015073F0B9
:100A50009D2D969548F0DD203AF4EE202AF491E0A1
:100A6000D90E9927E91EF91E8DCF07C09FE7092FE0
:100A7000F92A9FEFD92EE92E0895DD24EE24FF24D4
:100A80000027112708959F929924AA24BB2488E166
:100A9000D216E306F40628F0D21AE30AF40A089400
:100AA00001C08894991CAA1CBB1CDD0CEE1CFF1C09
:100AB0008A9571F7D92CEA2CFB2C9F900895D89534
:100AC000319628F48F938BB783958BBF8F9100203D
:100AD0000895F5DF202DF3DF302DF1DF402DEFDF1E
:100AE000502D08950F9301E00BBF0F918894089546
:100AF0000F930027F9CF0F9302E0F6CF0F9303E097
:100B0000F3CF000F111F221F331F0895009510957A
:100B1000209530950F5F1F4F2F4F3F4F0895019144
:100B200010810EC001911191219130810BC0019172
:100B3000108117FF05C03FEF2FEF04C00081112780
:100B40002227332737FF03C0E1DF8DE28D93CF9358
:100B5000DF93CF92DF92EF92AA24BB24CC24DD2432
:100B6000EE2440E2CAE0DD2755E093E38881890F57
:100B700087FD9F7083FD907F891B89935A95A9F704
:100B8000C0DFAA1CBB1CCC1CDD1CEE1C4A9551F717
:100B9000E894EFE0FF2782910ED0EB30E0F71EF0F3
:100BA00068948A2D0CD088278D93EF90DF90CF909A
:100BB000DF91CF910895982F829501D0892F8F7062
:100BC000805D26F0803309F4089568948D9308952C
:100BD00094E081918D939A95E1F708950000A040EB
:100BE000000080454441432056414C3A20004F5577
:0A0BF000542056414C3A20005600F4
:00000001FF
