:100000000C94460018950000189500000C9496007A
:100010000C94DB001895000018950000189500005E
:10002000189500001895000018950000189500001C
:10003000189500001895000018950000189500000C
:1000400018950000189500001895000018950000FC
:1000500018950000189500001895000018950000EC
:1000600018950000189500001895000018950000DC
:1000700018950000189500001895000018950000CC
:100080001895000018950000189500008FEF8DBF9F
:10009000C8EDE0EC4E2E80E18EBFD0E1F0E15F2EA6
:1000A000A89584B7082E877F84BF88E1992781BDF2
:1000B00091BDEEEFFFE0A0E0B1E088278D9331978E
:1000C000E9F783E389B980E08093900088E18AB9F9
:1000D0000E949B02662470E07093710070E270933E
:1000E00070000E943D048A9880916A008F7C806233
:1000F00080936A008B9880916A008F7380688093E8
:100100006A008CE00E94EE0288EE93E00E94860373
:100110000E946D010E9420010E949301E1E0F0E045
:100120000E9495020C948A00F894FFCF0F921F92C0
:100130002F923F924F925F927F92AF92BF920F9316
:100140001F932F933F934F935F936F937F938F935F
:100150009F93AF93BF93CF93DF93EF93FF938FB7AB
:100160008F938BB78F9388278BBFE8E2F9E00E94CB
:10017000B6030E9487020E948E028F918BBF8F91DF
:100180008FBFFF91EF91DF91CF91BF91AF919F9181
:100190008F917F916F915F914F913F912F911F911F
:1001A0000F91BF90AF907F905F904F903F902F90B6
:1001B0001F900F9018950F921F922F923F924F927F
:1001C0005F927F92AF92BF920F931F932F933F93B3
:1001D0004F935F936F937F938F939F93AF93BF934F
:1001E000CF93DF93EF93FF938FB78F938BB78F935B
:1001F00088278BBFEEE2F9E00E94B6030E948702D7
:100200000E948E028F918BBF8F918FBFFF91EF91D4
:10021000DF91CF91BF91AF919F918F917F916F911E
:100220005F914F913F912F911F910F91BF90AF9090
:100230007F905F904F903F902F901F900F90189558
:100240000E94420418E30E945A0411E00E945A04DA
:100250000E94420419E30E945A040E947904A1E01A
:10026000B1E01C930E947904A2E0B1E01C930E94CB
:100270007904A5E0B1E01C930E947904A6E0B1E006
:100280001C930E947904A9E0B1E01C930E947704BA
:10029000AAE0B1E01C930E94510408950E94420418
:1002A00018E30E945A041AE20E945A040E9442046F
:1002B00019E30E945A040E947704AEE0B1E01C9357
:1002C0000E945104A8EAB0E1EEE0F1E00E942604A9
:1002D0000E947F020E948E0208950E94420418E349
:1002E0000E945A041AE20E945A0411E00E945A0421
:1002F0000E94510408950E944E010E946D010895CC
:100300000E944E010E946D0108950E944E010E94BC
:100310006D0108950E944E0182E080930D010E94BC
:100320006D0108950895A1E0B1E09C91A2E0B1E0D3
:100330008C91A3E0B1E08D939C93A5E0B1E09C91FA
:10034000A6E0B1E08C91A7E0B1E08D939C93A9E089
:10035000B1E09C91AAE0B1E08C91ABE0B1E08D936B
:100360009C93009101010F3718F011F00C94BA0121
:100370000C94D501AFE0B1E0E4E3F9E00E94B603EC
:100380000E949503A3E0B1E042E00E947702A3E05F
:10039000B1E00D911C9141E050E0040F151FA3E066
:1003A000B1E00D931C930C94DD01AFE0B1E0E6E306
:1003B000F9E00E94B6030E94950394E0A3E0B1E047
:1003C0000E949B03009105010F3718F011F00C9467
:1003D000EB010C940602A1E1B1E0E4E3F9E00E9434
:1003E000B6030E949503A7E0B1E042E00E947702C5
:1003F000A7E0B1E00D911C9141E050E0040F151F02
:10040000A7E0B1E00D931C930C940E02A1E1B1E0C2
:10041000E6E3F9E00E94B6030E94950394E0A7E0AA
:10042000B1E00E949B03009109010F3718F011F011
:100430000C941C020C943702A3E1B1E0E4E3F9E070
:100440000E94B6030E949503ABE0B1E042E00E9437
:100450007702ABE0B1E00D911C9141E050E0040F58
:10046000151FABE0B1E00D931C930C943F02A3E188
:10047000B1E0E6E3F9E00E94B6030E94950394E040
:10048000ABE0B1E00E949B03AFE0B1E00E948102CB
:10049000A8EAB0E1E3E0F1E00E94CD030E947F0210
:1004A0000E948E02A1E1B1E00E948102A8EAB0E1BF
:1004B000E7E0F1E00E94CD030E947F020E948E02DD
:1004C000A3E1B1E00E948102A8EAB0E1EBE0F1E033
:1004D0000E94CD030E947F020E948E02E8E3F9E0B1
:1004E0000E94B6030E9487020E948E020895EA2F9E
:1004F000FB2F8D91809581934A95D9F70895A8EAAD
:10050000B0E18D91882311F00CD0FBCF08950E94AB
:10051000A603802D11F005D0FACF08958DE001D00B
:100520008AE05D9BFECF8CB9089588EE93E0EED013
:100530003197D9F70895709165007D7F70936500BC
:10054000709165007B7F70936500709165007E7F80
:100550007093650070916400726070936400709194
:1005600064007460709364007091640071607093B3
:100570006400B4D0A49AA59AA69AA79A88E290E0BB
:100580000E948603AC9AAD9A8DD085E090E00E94DF
:10059000860388D0EF93FF93ECEEF0E00E947D039A
:1005A000FF91EF917FD0EF93FF93ECEEF0E00E948C
:1005B0007D03FF91EF91AC9875D088E20FD08EE06B
:1005C0000DD086E00BC00CD0709165007160709307
:1005D000650089D067D0829586D064C001D0F9CFFC
:1005E000709165007D7F70936500709165007B7FE1
:1005F00070936500709165007E7F709365007091C7
:100600006400726070936400709164007460709311
:100610006400709164007160709364005FD0A4986E
:10062000A598A698A798709165007460709365006E
:10063000709165007260709365000000000000001A
:1006400000000000000000000000000000000000AA
:1006500000000000000000000000000003B27091E4
:1006600065007D7F709365000000000000000000C1
:10067000000000000000000000000000000000007A
:10068000000000000000000000000CD007FCD0CFEC
:10069000709165007B7F70936500A49AA59AA69AD5
:1006A000A79A0895709165007260709365000000CC
:1006B000000000000000000000000000000000003A
:1006C000000000000000000000000000000000002A
:1006D000709165007D7F709365000895AC98AD982A
:1006E000AE98AF980895FADF84FDAC9A85FDAD9A77
:1006F00086FDAE9A87FDAF9A08953197F1F7089578
:10070000689462F80895E89462F80895EF93FF936F
:10071000EE27E82BE92B31F0E0EDF7E03197F1F728
:100720000197D1F7FF91EF9108950E94A6030D92D2
:100730000020D9F70895903041F00D911C91169545
:1007400007959A95E1F71C930E930895D8953196E5
:1007500028F48F938BB783958BBF8F9100200895DA
:100760000F9301E00BBF0F91889408950F9300271A
:10077000F9CF0F9302E0F6CF0F9303E0F3CF000F12
:10078000111F221F331F0895009510952095309555
:100790000F5F1F4F2F4F3F4F0895019110810EC0E3
:1007A00001911191219130810BC00191108117FFAE
:1007B00005C03FEF2FEF04C0008111272227332708
:1007C00037FF03C0E1DF8DE28D93CF93DF93CF92AC
:1007D000DF92EF92AA24BB24CC24DD24EE2440E255
:1007E000CAE0DD2755E093E38881890F87FD9F707C
:1007F00083FD907F891B89935A95A9F7C0DFAA1CB6
:10080000BB1CCC1CDD1CEE1C4A9551F7E894EFE0B4
:10081000FF2782910ED0EB30E0F71EF068948A2D0E
:100820000CD088278D93EF90DF90CF90DF91CF9100
:100830000895982F829501D0892F8F70805D26F0C2
:10084000803309F4089568948D93089541E003C0BE
:1008500042E001C044E0E40F8827F81F829138E0AD
:1008600098E1880F991F9D933A95D1F74A95B1F772
:100870000C943A0488278D930895919890988998BC
:1008800088980895889A899803D0889801D0899A81
:10089000EF93FF93E6E0F0E00E947D03FF91EF917C
:1008A0000895889A899AF4DF8898809BFECFF0DFBC
:1008B0008998EECF0894111F01C0110F69F0889A32
:1008C00018F40000899802C0899A00C0E1DF889876
:1008D000809BFECFDDDFF1CF889A8998D9DF889899
:1008E000809BFECFE8948199689462F8D1CF0894F8
:1008F00001C08894331F11E0889A8998C9DF8898CD
:10090000809BFECFC5DF889481990894111FA0F7C2
:10091000889A379510F4899801C0899AB9DF889828
:10092000809BFECFB5DF0895494E54410000494EEB
:10093000544200002D002B002D2D2D2D2D2D2D2D61
:020940002D0088
:00000001FF
