:100000000C94460018950000189500001895000003
:10001000189500001895000018950000189500002C
:10002000189500001895000018950000189500001C
:10003000189500001895000018950000189500000C
:1000400018950000189500001895000018950000FC
:1000500018950000189500001895000018950000EC
:1000600018950000189500001895000018950000DC
:1000700018950000189500001895000018950000CC
:100080001895000018950000189500008FEF8DBF9F
:10009000C8EDE0EC4E2E80E18EBFD0E1F0E15F2EA6
:1000A000A89584B7082E877F84BF88E1992781BDF2
:1000B00091BDEEEFFFE0A0E0B1E088278D9331978E
:1000C000E9F783E389B980E08093900088E18AB9F9
:1000D000662414981C9A15981D9A16981E9A1798BB
:1000E0001F9A1598A2E0B1E09C9197FF04C00D9B68
:1000F00010C09F779C930D990CC082E39F93992722
:100100000E9410019F910D9904C090689C930E94D9
:10011000DE001498A2E0B1E09C9196FF04C00C9B15
:1001200010C09F7B9C930C990CC082E39F939927EE
:100130000E9410019F910C9904C090649C930E94AE
:10014000D5001798A2E0B1E09C9195FF04C00F9BE9
:1001500010C09F7D9C930F990CC082E39F939927B9
:100160000E9410019F910F9904C090629C930E947D
:10017000F0001698A2E0B1E09C9194FF04C00E9BA1
:1001800010C09F7E9C930E990CC082E39F93992789
:100190000E9410019F910E9904C090619C930E944F
:1001A000E7000C947100F894FFCFE0E7F2E00E94C2
:1001B0002F010E94F9000E9400010895E8E8F2E092
:1001C0000E942F010E94F9000E9400010895EEE9AB
:1001D000F2E00E942F010E94F9000E9400010895A0
:1001E000E8EBF2E00E942F010E94F9000E9400015A
:1001F00008950E941F01802D11F005D0FACF0895B7
:100200008DE001D08AE05D9BFECF8CB908953197D7
:10021000F1F70895689462F80895E89462F80895F3
:10022000EF93FF93EE27E82BE92B31F0E0EDF7E0B9
:100230003197F1F70197D1F7FF91EF910895D89594
:10024000319628F48F938BB783958BBF8F910020C5
:1002500008950F9301E00BBF0F91889408950F93B9
:100260000027F9CF0F9302E0F6CF0F9303E0F3CF0F
:10027000537769746368204C6566742069732050F5
:1002800072657373656421005377697463682055E0
:100290007020697320507265737365642100537711
:1002A00069746368205269676874206973205072AA
:1002B0006573736564210000537769746368204433
:1002C0006F776E20697320507265737365642100C7
:00000001FF
