:100000000C94460018950000189500001895000003
:10001000189500001895000018950000189500002C
:10002000189500001895000018950000189500001C
:10003000189500001895000018950000189500000C
:1000400018950000189500001895000018950000FC
:1000500018950000189500001895000018950000EC
:1000600018950000189500001895000018950000DC
:1000700018950000189500001895000018950000CC
:100080001895000018950000189500008FEF8DBF9F
:10009000C8EDE0EC4E2E80E18EBFD0E1F0E15F2EA6
:1000A000A89584B7082E877F84BF88E1992781BDF2
:1000B00091BDEEEFFFE0A0E0B1E088278D9331978E
:1000C000E9F783E389B980E08093900088E18AB9F9
:1000D0000E94990066248FEF809361008CE00E945B
:1000E000EC000E94950080E08093010100910101E5
:1000F0000F3F18F011F00C949000A1E0B1E08C914A
:10010000809362000E94940082E390E00E94840148
:10011000A1E0B1E08C918F5F8C9310F40C94760089
:100120000C947300F894FFCF089581E055D080E8D7
:1001300053C0709165007D7F70936500709165007C
:100140007B7F70936500709165007E7F7093650082
:1001500070916400726070936400709164007460C8
:100160007093640070916400716070936400B4D007
:10017000A49AA59AA69AA79A88E290E00E94840180
:10018000AC9AAD9A8DD085E090E00E94840188D031
:10019000EF93FF93ECEEF0E00E947B01FF91EF9173
:1001A0007FD0EF93FF93ECEEF0E00E947B01FF9194
:1001B000EF91AC9875D088E20FD08EE00DD086E03C
:1001C0000BC00CD07091650071607093650089D090
:1001D00067D0829586D064C001D0F9CF7091650058
:1001E0007D7F70936500709165007B7F70936500E3
:1001F000709165007E7F70936500709164007260FD
:1002000070936400709164007460709364007091E6
:1002100064007160709364005FD0A498A598A6985C
:10022000A798709165007460709365007091650087
:100230007260709365000000000000000000000084
:1002400000000000000000000000000000000000AE
:10025000000000000000000003B2709165007D7F87
:100260007093650000000000000000000000000026
:10027000000000000000000000000000000000007E
:100280000000000000000CD007FCD0CF709165008A
:100290007B7F70936500A49AA59AA69AA79A089561
:1002A00070916500726070936500000000000000AE
:1002B000000000000000000000000000000000003E
:1002C00000000000000000000000000070916500C8
:1002D0007D7F709365000895AC98AD98AE98AF9807
:1002E0000895FADF84FDAC9A85FDAD9A86FDAE9A3D
:1002F00087FDAF9A08953197F1F70895689462F8F1
:100300000895E89462F80895EF93FF93EE27E82BA1
:10031000E92B31F0E0EDF7E03197F1F70197D1F7F4
:10032000FF91EF9108950F9301E00BBF0F91889417
:1003300008950F930027F9CF0F9302E0F6CF0F93A4
:0403400003E0F3CF14
:00000001FF
