:100000000C94460018950000189500001895000003
:10001000189500001895000018950000189500002C
:10002000189500001895000018950000189500001C
:10003000189500001895000018950000189500000C
:1000400018950000189500001895000018950000FC
:1000500018950000189500001895000018950000EC
:1000600018950000189500001895000018950000DC
:1000700018950000189500001895000018950000CC
:100080001895000018950000189500008FEF8DBF9F
:10009000C8EDE0EC4E2E80E18EBFD0E1F0E15F2EA6
:1000A000A89584B7082E877F84BF88E1992781BDF2
:1000B00091BDEEEFFFE0A0E0B1E088278D9331978E
:1000C000E9F783E389B980E08093900088E18AB9F9
:1000D0006624E4E9F3E00E94C1010E9463010E94EA
:1000E0006A010E947A01A1E0B1E00C930091010144
:1000F000003110F00C947E000E9482000C9471007C
:10010000F894FFCF00910101003011F00C9492009F
:10011000EAE9F3E00E94C1010E9463010E946A01C2
:100120000C946201013011F00C94A000EEEAF3E0AF
:100130000E94C1010E9463010E946A010C94620145
:10014000023011F00C94AE00E2ECF3E00E94C10129
:100150000E9463010E946A010C946201033011F055
:100160000C94BC00E6EDF3E00E94C1010E94630123
:100170000E946A010C946201043011F00C94CA00D0
:10018000EAEEF3E00E94C1010E9463010E946A014D
:100190000C946201053011F00C94D800EEEFF3E0FE
:1001A0000E94C1010E9463010E946A010C946201D5
:1001B000063011F00C94E600E2E1F4E00E94C10187
:1001C0000E9463010E946A010C946201073011F0E1
:1001D0000C94F400E6E2F4E00E94C1010E94630185
:1001E0000E946A010C946201083011F00C94020123
:1001F000EAE3F4E00E94C1010E9463010E946A01E7
:100200000C946201093011F00C941001EEE4F4E05A
:100210000E94C1010E9463010E946A010C94620164
:100220000A3011F00C941E01E2E6F4E00E94C101D4
:100230000E9463010E946A010C9462010B3011F06C
:100240000C942C01E6E7F4E00E94C1010E946301D6
:100250000E946A010C9462010C3011F00C943A0176
:10026000EAE8F4E00E94C1010E9463010E946A0171
:100270000C9462010D3011F00C944801EEE9F4E0A9
:100280000E94C1010E9463010E946A010C946201F4
:100290000E3011F00C945601E2EBF4E00E94C10123
:1002A0000E9463010E946A010C9462010F3011F0F8
:1002B0000C946201E6ECF4E00E94C1010E9463012B
:1002C0000E946A0108950E94B101802D11F005D0AD
:1002D000FACF08958DE001D08AE05D9BFECF8CB906
:1002E00008953197F1F70895689462F80895E894B5
:1002F00062F8089500E18FEF82BB8FE081BB80EF51
:1003000082BB84E18A95F1F7849B00E0859B04E041
:10031000869B08E0879B0CE080EF81BB8FE082BB6F
:1003200084E18A95F1F78827809B80E0819B81E0BA
:10033000829B82E0839B83E0080F82E390E00E942F
:10034000A2010895EF93FF93EE27E82BE92B31F0FC
:10035000E0EDF7E03197F1F70197D1F7FF91EF91D9
:100360000895D895319628F48F938BB783958BBFDA
:100370008F91002008950F9301E00BBF0F91889497
:1003800008950F930027F9CF0F9302E0F6CF0F9354
:1003900003E0F3CF7374617274004B65792050727F
:1003A00065737365642069732028312900004B65EB
:1003B000792050726573736564206973202832292F
:1003C00000004B6579205072657373656420697312
:1003D0002028332900004B657920507265737365BE
:1003E000642069732028412900004B6579205072F0
:1003F00065737365642069732028342900004B6598
:1004000079205072657373656420697320283529DB
:1004100000004B65792050726573736564206973C1
:100420002028362900004B6579205072657373656A
:10043000642069732028422900004B65792050729E
:1004400065737365642069732028372900004B6544
:100450007920507265737365642069732028382988
:1004600000004B6579205072657373656420697371
:100470002028392900004B65792050726573736517
:10048000642069732028432900004B65792050724D
:10049000657373656420697320282A2900004B6501
:1004A0007920507265737365642069732028302940
:1004B00000004B6579205072657373656420697321
:1004C0002028232900004B657920507265737365DD
:0A04D000642069732028442900000D
:00000001FF
