:100000000C94460018950000189500001895000003
:10001000189500001895000018950000189500002C
:10002000189500001895000018950000189500001C
:10003000189500001895000018950000189500000C
:1000400018950000189500001895000018950000FC
:1000500018950000189500001895000018950000EC
:1000600018950000189500001895000018950000DC
:1000700018950000189500001895000018950000CC
:100080001895000018950000189500008FEF8DBF9F
:10009000C8EDE0EC4E2E80E18EBFD0E1F0E15F2EA6
:1000A000A89584B7082E877F84BF88E1992781BDF2
:1000B00091BDEEEFFFE0A0E0B1E088278D9331978E
:1000C000E9F783E389B980E08093900088E18AB9F9
:1000D00066247CEF7ABB0E94190786E886B980E423
:1000E00087B9709161007F7B7093610070916100AE
:1000F0007F7770936100709161007062709361000E
:100100007091610070617093610088EE93E00E94CD
:100110000A070E9486070E9401030E9499000E941C
:10012000D00084E690E00E940A070C948D00F894B9
:10013000FFCF7091620070627093620070916200F4
:100140007F7E7093620085E090E00E940A0707B10D
:10015000007E066007B90E947A08A7E0B1E08D939F
:100160009D9388278D938C93709162007F7D70930F
:1001700062007091620070617093620085E090E0AF
:100180000E940A0707B1007E076007B90E947A083B
:10019000ABE0B1E08D939D9388278D938C93089568
:1001A000A7E0B1E00D911D912D913C9140E850E008
:1001B00060E070E00E945108A7E0B1E00D931D934C
:1001C0002D933D93A7E0B1E00D911D912D913C91B0
:1001D00040E054E060E070E00E94B406A1E1B1E0CC
:1001E0004D935D936D937D93ABE0B1E00D911D91C7
:1001F0002D913C9140E450E060E070E00E94510895
:10020000ABE0B1E00D931D932D933D93ABE0B1E0D6
:100210000D911D912D913C9140E054E060E070E023
:100220000E94B406ABE0B1E04D935D936D937D9376
:1002300000E410E020E030E0ABE0B1E04D915D91F2
:100240006D917C910E949C08A5E1B1E00D931D93F6
:100250002D933D9340E150E060E070E0A1E1B1E01A
:100260000D911D912D913C91041715072607370715
:1002700080E010F009F081E08F9348E250E060E008
:1002800070E0A1E1B1E00D911D912D913C91041719
:1002900015072607370781E008F080E09F91892342
:1002A000882311F40C94BA014FE050E060E070E054
:1002B000A5E1B1E00D911D912D913C910417150719
:1002C0002607370780E010F009F081E08F934EE1B8
:1002D00050E060E070E0A5E1B1E00D911D912D913D
:1002E0003C91041715072607370781E008F080E0E6
:1002F0009F918923882311F40C948601AFE0B1E02B
:10030000EAE9F1E10E9493080E94740848E250E093
:1003100060E070E0A5E1B1E00D911D912D913C915F
:10032000041715072607370780E010F009F081E071
:100330008F9347E350E060E070E0A5E1B1E00D91FC
:100340001D912D913C91041715072607370781E071
:1003500008F080E09F918923882311F40C94B80160
:10036000AFE0B1E0ECE9F1E10E9493080E9474086B
:100370000C94D80244E350E060E070E0A1E1B1E009
:100380000D911D912D913C910417150726073707F4
:1003900080E010F009F081E08F934CE450E060E0E1
:1003A00070E0A1E1B1E00D911D912D913C910417F8
:1003B00015072607370781E008F080E09F91892321
:1003C000882311F40C944A024FE050E060E070E0A2
:1003D000A5E1B1E00D911D912D913C9104171507F8
:1003E0002607370780E010F009F081E08F934EE197
:1003F00050E060E070E0A5E1B1E00D911D912D911C
:100400003C91041715072607370781E008F080E0C4
:100410009F918923882311F40C941602AFE0B1E078
:10042000EEE9F1E10E9493080E94740848E250E06E
:1004300060E070E0A5E1B1E00D911D912D913C913E
:10044000041715072607370780E010F009F081E050
:100450008F9347E350E060E070E0A5E1B1E00D91DB
:100460001D912D913C91041715072607370781E050
:1004700008F080E09F918923882311F40C944802AE
:10048000AFE0B1E0E0EAF1E10E9493080E94740855
:100490000C94D8024AE550E060E070E0A1E1B1E0E0
:1004A0000D911D912D913C910417150726073707D3
:1004B00080E010F009F081E08F9342E750E060E0C7
:1004C00070E0A1E1B1E00D911D912D913C910417D7
:1004D00015072607370781E008F080E09F91892300
:1004E000882311F40C94D8024FE050E060E070E0F3
:1004F000A5E1B1E00D911D912D913C9104171507D7
:100500002607370780E010F009F081E08F934EE175
:1005100050E060E070E0A5E1B1E00D911D912D91FA
:100520003C91041715072607370781E008F080E0A3
:100530009F918923882311F40C94A602AFE0B1E0C7
:10054000E2EAF1E10E9493080E94740848E250E058
:1005500060E070E0A5E1B1E00D911D912D913C911D
:10056000041715072607370780E010F009F081E02F
:100570008F9347E350E060E070E0A5E1B1E00D91BA
:100580001D912D913C91041715072607370781E02F
:1005900008F080E09F918923882311F40C94D802FD
:1005A000AFE0B1E0E4EAF1E10E9493080E94740830
:1005B00040E050E060E070E0A1E1B1E00D911D91FC
:1005C0002D913C91041715072607370718F011F0F5
:1005D0000C94EC020C94F802E6EAF1E10E94930814
:1005E0000E949C06AFE0B1E00E9496060E94A3061E
:1005F000AFE0B1E0E6EBF1E10E9493080E947408DD
:10060000089580E08A9380E08A9380E08A93E6E20E
:10061000F9E00E9493088827809306010E94FE0754
:10062000089501080800000000000000000000001C
:100630005F00000000000003000300000000147FC2
:10064000147F14000000004C7A4F32000000006656
:1006500016686600000000384F4D320000000000B0
:1006600000030000000000003E4100000000000008
:10067000413E00000000001C3E1C0000000000087D
:100680003E080000000000000060000000000008BC
:1006900008080800000000004000000000000040C2
:1006A000300C03000000003E41413E0000000042CB
:1006B0007F40000000000062514946000000002217
:1006C0004949360000000038267F20000000004F16
:1006D000494931000000003E494932000000000352
:1006E0007109070000000036494936000000002665
:1006F00049493E00000000002400000000000040C6
:100700002400000000000008142241000000001432
:10071000141414000000004122140800000000021C
:10072000510906000000000E71497E000000007EA5
:1007300011117E000000007F494936000000003E94
:10074000414122000000007F41413E000000007F47
:10075000494941000000007F090901000000003EF6
:1007600041493A000000007F08087F000000004176
:100770007F4100000000003040403F000000007F4B
:10078000081463000000007F404040000000007F2C
:1007900006067F000000007F06187F000000007F33
:1007A00041417F000000007F090906000000003E73
:1007B00051617E000000007F1929460000000026DC
:1007C00049493200000000017F0101000000003FA4
:1007D00040403F000000000F70700F000000007FDD
:1007E00030307F00000000631C1C63000000030425
:1007F0007804030000000061594D43000000000030
:100800007F4100000000030C3040000000000000A9
:10081000417F0000000000020102000000000040D3
:1008200040404000000000000300000000000020E5
:10083000585878000000007F484830000000003021
:10084000484848000000003048487F000000003061
:1008500058581000000000087C0A08000000001032
:10086000A8A878000000007F0878000000000000C1
:100870007400000000000080807400000000007F11
:1008800010284800000000407F4000000000007871
:100890000878780000000078080870000000003038
:1008A00048483000000000F84848300000000030A0
:1008B0004848F800000000781008080000000050C8
:1008C00058682800000000087C480000000000383C
:1008D00040407800000000186060180000001860B8
:1008E0003860180000000048303048000000001850
:1008F000A0A07800000000486858480000000008E8
:1009000077410000000000007F000000000000416F
:100910007708000000000002010201000000003E14
:100920003E3E000000004080FF0101C1110909891D
:10093000C9C9C9C9C9C9C9C9C9C9C9C9C9C9C9C927
:10094000C9C9C9C9C9C9C9C9C9C9C9890911E1017F
:10095000010101010101C1110909C9C9C9C9C9C9F7
:10096000C9C9C9C9C9C9C9C9C9C9C9C9C9C9C9C9F7
:10097000C9C9C9C9C9C9090911C1010101010101D7
:1009800001E1110989C9C9C9C9C9C9C9C9C9C9C93F
:10099000C9C9C9C9C9C9C9C9C9C9C9C9C9C9C9C9C7
:1009A00089090911C10101FFFF0000FF0000FFFFDD
:1009B000FFFFFFFFFFFFFFFFFF3F0701C1C1010373
:1009C0001FFFFFFFFFFFFFFFFFFFFFFF0000FF0014
:1009D000000000000000FF0000FFFFFFFFFFFFFF1F
:1009E000FFFFFF01010131313111030347FFFFFF19
:1009F000FFFFFFFFFFFFFF0000FF000000000000FF
:100A000000FF0000FFFFFFFFFFFFFFFFFF1F0703C7
:100A100003E1F1F1F1C3E3E7FFFFFFFFFFFFFFFF9A
:100A2000FFFF0000FF0000FFFF0000FF00007FFF4E
:100A3000FFFFFFFFFFFFFFE7E0E0E0F8F9F9F8F064
:100A4000E0E0E3FFFFFFFFFFFFFFFF7F0000FF008D
:100A5000000000000000FF00007FFFFFFFFFFFFF1E
:100A6000FFFFFFE0E0E0E7E7E7E3E0E0F0F9FFFFAA
:100A7000FFFFFFFFFFFF7F0000FF000000000000FE
:100A800000FF00007FFFFFFFFFFFFFFFFFFEF8F00A
:100A9000E0E3E7E7E3E0E1F1FDFFFFFFFFFFFFFF3A
:100AA000FF7F0000FF0000FFFF00000002040808B5
:100AB00008090909090909090909090909090909A7
:100AC00009090909090909090909080800040100B7
:100AD00000000000000001040408080809090909D1
:100AE0000909090909090909090909090909090976
:100AF00009090909080808040401000000000000B1
:100B00000001040008080909090909090909090976
:100B10000909090909090909090909090909090846
:100B200008080402000000FFFF0000004020101031
:100B30001090909090909090909090909090909035
:100B40009090909090909090909010100020800045
:100B50000000000000008020201010109090909065
:100B60009090909090909090909090909090909085
:100B70009090909010101020208000000000000045
:100B80000080200010109090909090909090909005
:100B900090909090909090909090909090909010D5
:100BA00010102040000000FFFF0000FF0000FEFFCB
:100BB000FFFFFFFFFFFFFFFF07070707C7C7C707C5
:100BC0000F0F3FFFFFFFFFFFFFFFFFFE0000FF00D3
:100BD000000000000000FF0000FEFFFFFFFFFFFF1E
:100BE000FFFFFFFF070707676767676767FFFFFF8D
:100BF000FFFFFFFFFFFFFE0000FF000000000000FE
:100C000000FF0000FEFFFFFFFFFFFFFFFFFFFFFFF2
:100C10000707076767676767E7FFFFFFFFFFFFFFDC
:100C2000FFFE0000FF0000FFFF0000FF0000FFFFCD
:100C3000FFFFFFFFFFFFFFFF808080808F8FC7C017
:100C4000C0E0F8FFFFFFFFFFFFFFFFFF0000FF0016
:100C5000000000000000FF0000FFFFFFFFFFFFFF9C
:100C6000FFFFFFFF8080808C8C8C8C8C8C8FFFFF33
:100C7000FFFFFFFFFFFFFF0000FF0000000000007C
:100C800000FF0000FFFFFFFFFFFFFFFFFFFFFFFF71
:100C9000808080FCFCFCFCFCFFFFFFFFFFFFFFFFF0
:100CA000FFFF0000FF0000FFFF808083889090918D
:100CB0009393939393939393939393939393939304
:100CC0009393939393939393939393919088878023
:100CD0008080808080808388909093939393939377
:100CE00093939393939393939393939393939393D4
:100CF0009393939393939090888380808080808057
:100D000080878890919393939393939393939393E2
:100D100093939393939393939393939393939393A3
:100D200091909088838080FFA8EAB0E18D9188231C
:100D300011F00CD0FBCF08950E948308802D11F094
:100D400005D0FACF08958DE001D08AE05D9BFECFFB
:100D50008CB9089500FC05D0089530D005D001F875
:100D6000F9CF37D03FD00895842F952FA62FB72FD6
:100D7000E894452B462B472B11F468940895402F97
:100D8000512F622F732F0027112722273327F0E2DC
:100D9000440F551F661F771F001F111F221F331F8F
:100DA000081B190B2A0B3B0B416028F4080F191F75
:100DB0002A1F3B1F4E7FFA9559F708950024E894A7
:100DC00077FF02C006D0689400F809D010F801241B
:100DD000089512D04F5F5F4F6F4F7F4F0895E89493
:100DE00037FF089500951095209530950F5F1F4FA0
:100DF0002F4F3F4F6894089540955095609570959A
:100E000008953197F1F70895689462F80895E89489
:100E100062F80895EF93FF93EE27E82BE92B31F06A
:100E2000E0EDF7E03197F1F70197D1F7FF91EF91FE
:100E30000895442718D0DA98DE9ADF9884E6992737
:100E40000E940A079FEF94BBDA9A37D014FCFDCFBB
:100E500002D04FEF08D08FE30FD080EC0DD080E4AC
:100E60000BD088EB09C0403420F0DB9ADC9840546A
:100E70000895DC9ADB980895DD9801C0DD9AEF9320
:100E8000FF93E6E0F0E00E940107FF91EF9185BB40
:100E9000DE98DF9A00000000000000000000000063
:100EA0000000000000000000000000000000000042
:100EB000000000000000DF980895DD9804D017FCC2
:100EC000FCCF0895DD9A992794BB9FEF95BBEF93D4
:100ED000FF93E6E0F0E00E940107FF91EF91DE9AB8
:100EE000DF9A000000000000000000000000000089
:100EF00000000000000000000000000000000000F2
:100F00000000000013B2DF9894BB08954427ABDFC4
:100F100002D04FEFA8DF00E080E4AEDF88EB800F67
:100F2000ABDF10E48827AADF1A95E1F703950830B4
:100F300099F70895EF93FF931BB61F925091040108
:100F40005F9370900501E0910101F0910201009022
:100F500003010BBE0E948308202D0E948308302DC0
:100F60000E948308002D0E9483088052482F0E940F
:100F7000B108E40FF51F27D070920501B32E409100
:100F800005015091040129D00E948308802D5091C1
:100F90000601552309F0809571DF509105015395A5
:100FA00050930501BA9459F7509104015395509309
:100FB00004012A9509F75F91509304011F901BBE0D
:100FC000FF91EF91089518F42BB623942BBE08954A
:100FD00018F42BB62A942BBE08954A955A9543DFF0
:100FE00088EB850F49DF80E4840F46CFBB2021F0DA
:100FF000AA27BB270C94A7080C9483081124222449
:101000003324B9900E94F607002D48E00E94BD08E5
:101010000A930E94F6070A920A920B8148E00E9406
:10102000BD080B834C81F42E5B81D9DF131489F446
:101030000E94F607202C802D8A3A41F00E94F60784
:10104000802D8A3A49F03197C3DF0FC03196BBDF5C
:101050000CC01A9459F309C00E94F607802D88230A
:1010600019F43297B5DF01C0102C822D9091060142
:10107000992309F080958F934F2D5B81B0DF8F917D
:10108000F394FCDE89818A95898381F68B8183952F
:101090008B83888189838A818A958A8319F625962C
:1010A00008950F921F922F92C801D901489F800185
:1010B0004A9F90014B9F202C499F100D211D321DEE
:1010C0005A9F202C589F100D211D321D599F200D15
:1010D000311D689F200D311D699F300D789F300DA7
:1010E0002F901F900F9008950E9483080D9200206A
:1010F000D9F70895369A3699FECF369A3699FECFAB
:1011000084B195B10895D895319628F48F938BB713
:1011100083958BBF8F91002008950F9301E00BBF43
:101120000F91889408950F930027F9CF0F9302E051
:10113000F6CF0F9303E0F3CF041B150B260B370BF1
:101140000895E199FECFEEBBFFBB3196089591E083
:1011500001C092E0F6DFE09A8DB38D939A95D1F7B6
:101160000895FF935527F8E0469508F4500F5795DA
:101170004795FA95D1F7FF910895FF93881BF9E001
:10118000001FFA9511F4FF910895881F841B18F42D
:10119000840F8894F5CF0894F3CF410044004200B7
:1011A00045004300460054686520427574746F6EB4
:0811B0002069733A20003F00A2
:00000001FF
