:100000000C94460018950000189500001895000003
:10001000189500001895000018950000189500002C
:10002000189500001895000018950000189500001C
:10003000189500001895000018950000189500000C
:1000400018950000189500001895000018950000FC
:1000500018950000189500001895000018950000EC
:1000600018950000189500001895000018950000DC
:1000700018950000189500001895000018950000CC
:100080001895000018950000189500008FEF8DBF9F
:10009000C8EDE0EC4E2E80E18EBFD0E1F0E15F2EA6
:1000A000A89584B7082E877F84BF88E1992781BDF2
:1000B00091BDEEEFFFE0A0E0B1E088278D9331978E
:1000C000E9F783E389B980E08093900088E18AB9F9
:1000D000662414981C9A15981D9A16981E9A1798BB
:1000E0001F9A0D990C9476000E9492000C990C9422
:1000F0007B000E9489000F990C9480000E94A4004C
:100100000E990C9485000E949B000C947100F89449
:10011000FFCFEAEBF1E00E94D4000E94AD000E9404
:10012000B4000895E2EDF1E00E94D4000E94AD0019
:100130000E94B4000895E8EEF1E00E94D4000E940D
:10014000AD000E94B4000895E2E0F2E00E94D40005
:100150000E94AD000E94B40008950E94C400802D4A
:1001600011F005D0FACF08958DE001D08AE05D9BB3
:10017000FECF8CB908953197F1F70895689462F82D
:100180000895E89462F80895D895319628F48F93ED
:100190008BB783958BBF8F91002008950F9301E05B
:1001A0000BBF0F91889408950F930027F9CF0F93F9
:1001B00002E0F6CF0F9303E0F3CF537769746368DF
:1001C000204C656674206973205072657373656492
:1001D000210053776974636820557020697320503B
:1001E0007265737365642100537769746368205284
:1001F0006967687420697320507265737365642140
:10020000000053776974636820446F776E206973C8
:0A02100020507265737365642100CD
:00000001FF
